{
  "_format": "hh-sol-artifact-1",
  "contractName": "ShelterzToken",
  "sourceName": "contracts/Token.sol",
  "abi": [
    {
      "inputs": [],
      "stateMutability": "nonpayable",
      "type": "constructor"
    },
    {
      "anonymous": false,
      "inputs": [
        {
          "indexed": true,
          "internalType": "address",
          "name": "owner",
          "type": "address"
        },
        {
          "indexed": true,
          "internalType": "address",
          "name": "spender",
          "type": "address"
        },
        {
          "indexed": false,
          "internalType": "uint256",
          "name": "value",
          "type": "uint256"
        }
      ],
      "name": "Approval",
      "type": "event"
    },
    {
      "anonymous": false,
      "inputs": [
        {
          "indexed": true,
          "internalType": "bytes32",
          "name": "role",
          "type": "bytes32"
        },
        {
          "indexed": true,
          "internalType": "bytes32",
          "name": "previousAdminRole",
          "type": "bytes32"
        },
        {
          "indexed": true,
          "internalType": "bytes32",
          "name": "newAdminRole",
          "type": "bytes32"
        }
      ],
      "name": "RoleAdminChanged",
      "type": "event"
    },
    {
      "anonymous": false,
      "inputs": [
        {
          "indexed": true,
          "internalType": "bytes32",
          "name": "role",
          "type": "bytes32"
        },
        {
          "indexed": true,
          "internalType": "address",
          "name": "account",
          "type": "address"
        },
        {
          "indexed": true,
          "internalType": "address",
          "name": "sender",
          "type": "address"
        }
      ],
      "name": "RoleGranted",
      "type": "event"
    },
    {
      "anonymous": false,
      "inputs": [
        {
          "indexed": true,
          "internalType": "bytes32",
          "name": "role",
          "type": "bytes32"
        },
        {
          "indexed": true,
          "internalType": "address",
          "name": "account",
          "type": "address"
        },
        {
          "indexed": true,
          "internalType": "address",
          "name": "sender",
          "type": "address"
        }
      ],
      "name": "RoleRevoked",
      "type": "event"
    },
    {
      "anonymous": false,
      "inputs": [
        {
          "indexed": true,
          "internalType": "address",
          "name": "from",
          "type": "address"
        },
        {
          "indexed": true,
          "internalType": "address",
          "name": "to",
          "type": "address"
        },
        {
          "indexed": false,
          "internalType": "uint256",
          "name": "value",
          "type": "uint256"
        }
      ],
      "name": "Transfer",
      "type": "event"
    },
    {
      "inputs": [],
      "name": "DEFAULT_ADMIN_ROLE",
      "outputs": [
        {
          "internalType": "bytes32",
          "name": "",
          "type": "bytes32"
        }
      ],
      "stateMutability": "view",
      "type": "function"
    },
    {
      "inputs": [],
      "name": "MAX_SUPPLY",
      "outputs": [
        {
          "internalType": "uint256",
          "name": "",
          "type": "uint256"
        }
      ],
      "stateMutability": "view",
      "type": "function"
    },
    {
      "inputs": [],
      "name": "MINTER",
      "outputs": [
        {
          "internalType": "bytes32",
          "name": "",
          "type": "bytes32"
        }
      ],
      "stateMutability": "view",
      "type": "function"
    },
    {
      "inputs": [
        {
          "internalType": "address",
          "name": "owner",
          "type": "address"
        },
        {
          "internalType": "address",
          "name": "spender",
          "type": "address"
        }
      ],
      "name": "allowance",
      "outputs": [
        {
          "internalType": "uint256",
          "name": "",
          "type": "uint256"
        }
      ],
      "stateMutability": "view",
      "type": "function"
    },
    {
      "inputs": [
        {
          "internalType": "address",
          "name": "spender",
          "type": "address"
        },
        {
          "internalType": "uint256",
          "name": "amount",
          "type": "uint256"
        }
      ],
      "name": "approve",
      "outputs": [
        {
          "internalType": "bool",
          "name": "",
          "type": "bool"
        }
      ],
      "stateMutability": "nonpayable",
      "type": "function"
    },
    {
      "inputs": [
        {
          "internalType": "address",
          "name": "account",
          "type": "address"
        }
      ],
      "name": "balanceOf",
      "outputs": [
        {
          "internalType": "uint256",
          "name": "",
          "type": "uint256"
        }
      ],
      "stateMutability": "view",
      "type": "function"
    },
    {
      "inputs": [
        {
          "internalType": "uint256",
          "name": "amount",
          "type": "uint256"
        }
      ],
      "name": "burn",
      "outputs": [],
      "stateMutability": "nonpayable",
      "type": "function"
    },
    {
      "inputs": [
        {
          "internalType": "address",
          "name": "account",
          "type": "address"
        },
        {
          "internalType": "uint256",
          "name": "amount",
          "type": "uint256"
        }
      ],
      "name": "burnFrom",
      "outputs": [],
      "stateMutability": "nonpayable",
      "type": "function"
    },
    {
      "inputs": [
        {
          "internalType": "uint256",
          "name": "",
          "type": "uint256"
        }
      ],
      "name": "contractManagers",
      "outputs": [
        {
          "internalType": "address",
          "name": "",
          "type": "address"
        }
      ],
      "stateMutability": "view",
      "type": "function"
    },
    {
      "inputs": [],
      "name": "decimals",
      "outputs": [
        {
          "internalType": "uint8",
          "name": "",
          "type": "uint8"
        }
      ],
      "stateMutability": "view",
      "type": "function"
    },
    {
      "inputs": [
        {
          "internalType": "address",
          "name": "spender",
          "type": "address"
        },
        {
          "internalType": "uint256",
          "name": "subtractedValue",
          "type": "uint256"
        }
      ],
      "name": "decreaseAllowance",
      "outputs": [
        {
          "internalType": "bool",
          "name": "",
          "type": "bool"
        }
      ],
      "stateMutability": "nonpayable",
      "type": "function"
    },
    {
      "inputs": [
        {
          "internalType": "bytes32",
          "name": "role",
          "type": "bytes32"
        }
      ],
      "name": "getRoleAdmin",
      "outputs": [
        {
          "internalType": "bytes32",
          "name": "",
          "type": "bytes32"
        }
      ],
      "stateMutability": "view",
      "type": "function"
    },
    {
      "inputs": [
        {
          "internalType": "address",
          "name": "account",
          "type": "address"
        },
        {
          "internalType": "uint256",
          "name": "amount",
          "type": "uint256"
        }
      ],
      "name": "grantManagerToContractInit",
      "outputs": [],
      "stateMutability": "nonpayable",
      "type": "function"
    },
    {
      "inputs": [
        {
          "internalType": "bytes32",
          "name": "role",
          "type": "bytes32"
        },
        {
          "internalType": "address",
          "name": "account",
          "type": "address"
        }
      ],
      "name": "grantRole",
      "outputs": [],
      "stateMutability": "nonpayable",
      "type": "function"
    },
    {
      "inputs": [
        {
          "internalType": "bytes32",
          "name": "role",
          "type": "bytes32"
        },
        {
          "internalType": "address",
          "name": "account",
          "type": "address"
        }
      ],
      "name": "hasRole",
      "outputs": [
        {
          "internalType": "bool",
          "name": "",
          "type": "bool"
        }
      ],
      "stateMutability": "view",
      "type": "function"
    },
    {
      "inputs": [
        {
          "internalType": "address",
          "name": "spender",
          "type": "address"
        },
        {
          "internalType": "uint256",
          "name": "addedValue",
          "type": "uint256"
        }
      ],
      "name": "increaseAllowance",
      "outputs": [
        {
          "internalType": "bool",
          "name": "",
          "type": "bool"
        }
      ],
      "stateMutability": "nonpayable",
      "type": "function"
    },
    {
      "inputs": [
        {
          "internalType": "address",
          "name": "to",
          "type": "address"
        },
        {
          "internalType": "uint256",
          "name": "amount",
          "type": "uint256"
        }
      ],
      "name": "mint",
      "outputs": [],
      "stateMutability": "nonpayable",
      "type": "function"
    },
    {
      "inputs": [],
      "name": "name",
      "outputs": [
        {
          "internalType": "string",
          "name": "",
          "type": "string"
        }
      ],
      "stateMutability": "view",
      "type": "function"
    },
    {
      "inputs": [
        {
          "internalType": "bytes32",
          "name": "role",
          "type": "bytes32"
        },
        {
          "internalType": "address",
          "name": "account",
          "type": "address"
        }
      ],
      "name": "renounceRole",
      "outputs": [],
      "stateMutability": "nonpayable",
      "type": "function"
    },
    {
      "inputs": [],
      "name": "returnContractManagers",
      "outputs": [
        {
          "internalType": "address[]",
          "name": "",
          "type": "address[]"
        }
      ],
      "stateMutability": "view",
      "type": "function"
    },
    {
      "inputs": [
        {
          "internalType": "address",
          "name": "account",
          "type": "address"
        }
      ],
      "name": "revokeManagerAfterContractInit",
      "outputs": [],
      "stateMutability": "nonpayable",
      "type": "function"
    },
    {
      "inputs": [
        {
          "internalType": "bytes32",
          "name": "role",
          "type": "bytes32"
        },
        {
          "internalType": "address",
          "name": "account",
          "type": "address"
        }
      ],
      "name": "revokeRole",
      "outputs": [],
      "stateMutability": "nonpayable",
      "type": "function"
    },
    {
      "inputs": [
        {
          "internalType": "bytes4",
          "name": "interfaceId",
          "type": "bytes4"
        }
      ],
      "name": "supportsInterface",
      "outputs": [
        {
          "internalType": "bool",
          "name": "",
          "type": "bool"
        }
      ],
      "stateMutability": "view",
      "type": "function"
    },
    {
      "inputs": [],
      "name": "symbol",
      "outputs": [
        {
          "internalType": "string",
          "name": "",
          "type": "string"
        }
      ],
      "stateMutability": "view",
      "type": "function"
    },
    {
      "inputs": [],
      "name": "totalSupply",
      "outputs": [
        {
          "internalType": "uint256",
          "name": "",
          "type": "uint256"
        }
      ],
      "stateMutability": "view",
      "type": "function"
    },
    {
      "inputs": [
        {
          "internalType": "address",
          "name": "to",
          "type": "address"
        },
        {
          "internalType": "uint256",
          "name": "amount",
          "type": "uint256"
        }
      ],
      "name": "transfer",
      "outputs": [
        {
          "internalType": "bool",
          "name": "",
          "type": "bool"
        }
      ],
      "stateMutability": "nonpayable",
      "type": "function"
    },
    {
      "inputs": [
        {
          "internalType": "address",
          "name": "from",
          "type": "address"
        },
        {
          "internalType": "address",
          "name": "to",
          "type": "address"
        },
        {
          "internalType": "uint256",
          "name": "amount",
          "type": "uint256"
        }
      ],
      "name": "transferFrom",
      "outputs": [
        {
          "internalType": "bool",
          "name": "",
          "type": "bool"
        }
      ],
      "stateMutability": "nonpayable",
      "type": "function"
    }
  ],
  "bytecode": "0x60806040523480156200001157600080fd5b50604080518082018252600881526729a422a62a22a92d60c11b6020808301918252835180850190945260048452632a22a92d60e11b9084015281519192916200005e9160039162000171565b5080516200007490600490602084019062000171565b506200008691506000905033620000cc565b600680546001810182556000919091527ff652222313e28459528d920b65115c16c04f3efc82aaedc97be59f3f377c0d3f0180546001600160a01b031916905562000254565b60008281526005602090815260408083206001600160a01b038516845290915290205460ff166200016d5760008281526005602090815260408083206001600160a01b03851684529091529020805460ff191660011790556200012c3390565b6001600160a01b0316816001600160a01b0316837f2f8788117e7eff1d82e926ec794901d17c78024a50270940304540a733656f0d60405160405180910390a45b5050565b8280546200017f9062000217565b90600052602060002090601f016020900481019282620001a35760008555620001ee565b82601f10620001be57805160ff1916838001178555620001ee565b82800160010185558215620001ee579182015b82811115620001ee578251825591602001919060010190620001d1565b50620001fc92915062000200565b5090565b5b80821115620001fc576000815560010162000201565b600181811c908216806200022c57607f821691505b602082108114156200024e57634e487b7160e01b600052602260045260246000fd5b50919050565b61183f80620002646000396000f3fe608060405234801561001057600080fd5b50600436106101a85760003560e01c806342966c68116100f957806395d89b4111610097578063a9059cbb11610071578063a9059cbb146103a0578063d547741f146103b3578063dd62ed3e146103c6578063fe6d8124146103d957600080fd5b806395d89b411461037d578063a217fddf14610385578063a457c2d71461038d57600080fd5b806371834eb2116100d357806371834eb21461031757806379cc67901461032c5780638c8a69271461033f57806391d148541461036a57600080fd5b806342966c68146102c857806366b700d7146102db57806370a08231146102ee57600080fd5b8063248a9ca31161016657806332cb6b0c1161014057806332cb6b0c1461027c57806336568abe1461028f57806339509351146102a257806340c10f19146102b557600080fd5b8063248a9ca3146102375780632f2ff15d1461025a578063313ce5671461026d57600080fd5b806276e4d7146101ad57806301ffc9a7146101c257806306fdde03146101ea578063095ea7b3146101ff57806318160ddd1461021257806323b872dd14610224575b600080fd5b6101c06101bb366004611500565b6103ee565b005b6101d56101d03660046115ea565b610515565b60405190151581526020015b60405180910390f35b6101f261054c565b6040516101e191906116d4565b6101d561020d366004611587565b6105de565b6002545b6040519081526020016101e1565b6101d561023236600461154c565b6105f6565b6102166102453660046115b0565b60009081526005602052604090206001015490565b6101c06102683660046115c8565b61061a565b604051601281526020016101e1565b6102166b033b2e3c9fd0803ce800000081565b6101c061029d3660046115c8565b61071f565b6101d56102b0366004611587565b610799565b6101c06102c3366004611587565b6107bb565b6101c06102d63660046115b0565b61084a565b6101c06102e9366004611587565b610857565b6102166102fc366004611500565b6001600160a01b031660009081526020819052604090205490565b61031f610990565b6040516101e19190611687565b6101c061033a366004611587565b6109f1565b61035261034d3660046115b0565b610a06565b6040516001600160a01b0390911681526020016101e1565b6101d56103783660046115c8565b610a30565b6101f2610a5b565b610216600081565b6101d561039b366004611587565b610a6a565b6101d56103ae366004611587565b610ae5565b6101c06103c13660046115c8565b610af3565b6102166103d436600461151a565b610be2565b6102166000805160206117ea83398151915281565b6001600160a01b038116600090815260076020526040812054906104129032610a30565b151560011461045f5760405162461bcd60e51b815260206004820152601460248201527343616c6c6572206973206e6f742061646d696e2160601b60448201526064015b60405180910390fd5b600081116104a85760405162461bcd60e51b81526020600482015260166024820152754163636f756e74206e6f742061206d616e616765722160501b6044820152606401610456565b600681815481106104c957634e487b7160e01b600052603260045260246000fd5b6000918252602080832090910180546001600160a01b03191690556001600160a01b03841682526007905260408120556105116000805160206117ea83398151915283610c0d565b5050565b60006001600160e01b03198216637965db0b60e01b148061054657506301ffc9a760e01b6001600160e01b03198316145b92915050565b60606003805461055b90611798565b80601f016020809104026020016040519081016040528092919081815260200182805461058790611798565b80156105d45780601f106105a9576101008083540402835291602001916105d4565b820191906000526020600020905b8154815290600101906020018083116105b757829003601f168201915b5050505050905090565b6000336105ec818585610c74565b5060019392505050565b600033610604858285610d98565b61060f858585610e0c565b506001949350505050565b60008281526005602052604090206001015461063581610fda565b6006546000805160206117ea83398151915284141561070f576001600160a01b038316600090815260076020526040902054156106b45760405162461bcd60e51b815260206004820152601a60248201527f4163636f756e7420616c72656164792061206d616e61676572210000000000006044820152606401610456565b60068054600181019091557ff652222313e28459528d920b65115c16c04f3efc82aaedc97be59f3f377c0d3f0180546001600160a01b0319166001600160a01b03851690811790915560009081526007602052604090208190555b6107198484610fe4565b50505050565b6001600160a01b038116331461078f5760405162461bcd60e51b815260206004820152602f60248201527f416363657373436f6e74726f6c3a2063616e206f6e6c792072656e6f756e636560448201526e103937b632b9903337b91039b2b63360891b6064820152608401610456565b6105118282610c0d565b6000336105ec8185856107ac8383610be2565b6107b69190611707565b610c74565b6000805160206117ea8339815191526107d381610fda565b6b033b2e3c9fd0803ce8000000826107ea60025490565b6107f49190611707565b111561083b5760405162461bcd60e51b81526020600482015260166024820152754d617820737570706c7920697320726561636865642160501b6044820152606401610456565b610845838361106a565b505050565b6108543382611149565b50565b600654610865600032610a30565b15156001146108ad5760405162461bcd60e51b815260206004820152601460248201527343616c6c6572206973206e6f742061646d696e2160601b6044820152606401610456565b6001600160a01b038316600090815260076020526040902054156109135760405162461bcd60e51b815260206004820152601a60248201527f4163636f756e7420616c72656164792061206d616e61676572210000000000006044820152606401610456565b61091e308484610c74565b60068054600181019091557ff652222313e28459528d920b65115c16c04f3efc82aaedc97be59f3f377c0d3f0180546001600160a01b0319166001600160a01b03851690811790915560009081526007602052604090208190556108456000805160206117ea83398151915284610fe4565b606060068054806020026020016040519081016040528092919081815260200182805480156105d457602002820191906000526020600020905b81546001600160a01b031681526001909101906020018083116109ca575050505050905090565b6109fc823383610d98565b6105118282611149565b60068181548110610a1657600080fd5b6000918252602090912001546001600160a01b0316905081565b60009182526005602090815260408084206001600160a01b0393909316845291905290205460ff1690565b60606004805461055b90611798565b60003381610a788286610be2565b905083811015610ad85760405162461bcd60e51b815260206004820152602560248201527f45524332303a2064656372656173656420616c6c6f77616e63652062656c6f77604482015264207a65726f60d81b6064820152608401610456565b61060f8286868403610c74565b6000336105ec818585610e0c565b600082815260056020526040902060010154610b0e81610fda565b6001600160a01b0382166000908152600760205260409020546000805160206117ea833981519152841415610bd85760008111610b865760405162461bcd60e51b81526020600482015260166024820152754163636f756e74206e6f742061206d616e616765722160501b6044820152606401610456565b60068181548110610ba757634e487b7160e01b600052603260045260246000fd5b6000918252602080832090910180546001600160a01b03191690556001600160a01b03851682526007905260408120555b6107198484610c0d565b6001600160a01b03918216600090815260016020908152604080832093909416825291909152205490565b610c178282610a30565b156105115760008281526005602090815260408083206001600160a01b0385168085529252808320805460ff1916905551339285917ff6391f5c32d9c69d2a47ea670b442974b53935d1edc7fd64eb21e047a839171b9190a45050565b6001600160a01b038316610cd65760405162461bcd60e51b8152602060048201526024808201527f45524332303a20617070726f76652066726f6d20746865207a65726f206164646044820152637265737360e01b6064820152608401610456565b6001600160a01b038216610d375760405162461bcd60e51b815260206004820152602260248201527f45524332303a20617070726f766520746f20746865207a65726f206164647265604482015261737360f01b6064820152608401610456565b6001600160a01b0383811660008181526001602090815260408083209487168084529482529182902085905590518481527f8c5be1e5ebec7d5bd14f71427d1e84f3dd0314c0f7b2291e5b200ac8c7c3b925910160405180910390a3505050565b6000610da48484610be2565b905060001981146107195781811015610dff5760405162461bcd60e51b815260206004820152601d60248201527f45524332303a20696e73756666696369656e7420616c6c6f77616e63650000006044820152606401610456565b6107198484848403610c74565b6001600160a01b038316610e705760405162461bcd60e51b815260206004820152602560248201527f45524332303a207472616e736665722066726f6d20746865207a65726f206164604482015264647265737360d81b6064820152608401610456565b6001600160a01b038216610ed25760405162461bcd60e51b815260206004820152602360248201527f45524332303a207472616e7366657220746f20746865207a65726f206164647260448201526265737360e81b6064820152608401610456565b6001600160a01b03831660009081526020819052604090205481811015610f4a5760405162461bcd60e51b815260206004820152602660248201527f45524332303a207472616e7366657220616d6f756e7420657863656564732062604482015265616c616e636560d01b6064820152608401610456565b6001600160a01b03808516600090815260208190526040808220858503905591851681529081208054849290610f81908490611707565b92505081905550826001600160a01b0316846001600160a01b03167fddf252ad1be2c89b69c2b068fc378daa952ba7f163c4a11628f55a4df523b3ef84604051610fcd91815260200190565b60405180910390a3610719565b6108548133611297565b610fee8282610a30565b6105115760008281526005602090815260408083206001600160a01b03851684529091529020805460ff191660011790556110263390565b6001600160a01b0316816001600160a01b0316837f2f8788117e7eff1d82e926ec794901d17c78024a50270940304540a733656f0d60405160405180910390a45050565b6001600160a01b0382166110c05760405162461bcd60e51b815260206004820152601f60248201527f45524332303a206d696e7420746f20746865207a65726f2061646472657373006044820152606401610456565b80600260008282546110d29190611707565b90915550506001600160a01b038216600090815260208190526040812080548392906110ff908490611707565b90915550506040518181526001600160a01b038316906000907fddf252ad1be2c89b69c2b068fc378daa952ba7f163c4a11628f55a4df523b3ef9060200160405180910390a35050565b6001600160a01b0382166111a95760405162461bcd60e51b815260206004820152602160248201527f45524332303a206275726e2066726f6d20746865207a65726f206164647265736044820152607360f81b6064820152608401610456565b6001600160a01b0382166000908152602081905260409020548181101561121d5760405162461bcd60e51b815260206004820152602260248201527f45524332303a206275726e20616d6f756e7420657863656564732062616c616e604482015261636560f01b6064820152608401610456565b6001600160a01b038316600090815260208190526040812083830390556002805484929061124c90849061173e565b90915550506040518281526000906001600160a01b038516907fddf252ad1be2c89b69c2b068fc378daa952ba7f163c4a11628f55a4df523b3ef9060200160405180910390a3505050565b6112a18282610a30565b610511576112b9816001600160a01b031660146112fb565b6112c48360206112fb565b6040516020016112d5929190611612565b60408051601f198184030181529082905262461bcd60e51b8252610456916004016116d4565b6060600061130a83600261171f565b611315906002611707565b67ffffffffffffffff81111561133b57634e487b7160e01b600052604160045260246000fd5b6040519080825280601f01601f191660200182016040528015611365576020820181803683370190505b509050600360fc1b8160008151811061138e57634e487b7160e01b600052603260045260246000fd5b60200101906001600160f81b031916908160001a905350600f60fb1b816001815181106113cb57634e487b7160e01b600052603260045260246000fd5b60200101906001600160f81b031916908160001a90535060006113ef84600261171f565b6113fa906001611707565b90505b600181111561148e576f181899199a1a9b1b9c1cb0b131b232b360811b85600f166010811061143c57634e487b7160e01b600052603260045260246000fd5b1a60f81b82828151811061146057634e487b7160e01b600052603260045260246000fd5b60200101906001600160f81b031916908160001a90535060049490941c9361148781611781565b90506113fd565b5083156114dd5760405162461bcd60e51b815260206004820181905260248201527f537472696e67733a20686578206c656e67746820696e73756666696369656e746044820152606401610456565b9392505050565b80356001600160a01b03811681146114fb57600080fd5b919050565b600060208284031215611511578081fd5b6114dd826114e4565b6000806040838503121561152c578081fd5b611535836114e4565b9150611543602084016114e4565b90509250929050565b600080600060608486031215611560578081fd5b611569846114e4565b9250611577602085016114e4565b9150604084013590509250925092565b60008060408385031215611599578182fd5b6115a2836114e4565b946020939093013593505050565b6000602082840312156115c1578081fd5b5035919050565b600080604083850312156115da578182fd5b82359150611543602084016114e4565b6000602082840312156115fb578081fd5b81356001600160e01b0319811681146114dd578182fd5b7f416363657373436f6e74726f6c3a206163636f756e742000000000000000000081526000835161164a816017850160208801611755565b7001034b99036b4b9b9b4b733903937b6329607d1b601791840191820152835161167b816028840160208801611755565b01602801949350505050565b6020808252825182820181905260009190848201906040850190845b818110156116c85783516001600160a01b0316835292840192918401916001016116a3565b50909695505050505050565b60208152600082518060208401526116f3816040850160208701611755565b601f01601f19169190910160400192915050565b6000821982111561171a5761171a6117d3565b500190565b6000816000190483118215151615611739576117396117d3565b500290565b600082821015611750576117506117d3565b500390565b60005b83811015611770578181015183820152602001611758565b838111156107195750506000910152565b600081611790576117906117d3565b506000190190565b600181811c908216806117ac57607f821691505b602082108114156117cd57634e487b7160e01b600052602260045260246000fd5b50919050565b634e487b7160e01b600052601160045260246000fdfef0887ba65ee2024ea881d91b74c2450ef19e1557f03bed3ea9f16b037cbe2dc9a2646970667358221220dc40e1a6e700215e797a8b7667707b36f3bab1748daf6537362d1540febfe75f64736f6c63430008040033",
  "linkReferences": {},
  "deployedLinkReferences": {}
}