{
  "_format": "hh-sol-artifact-1",
  "contractName": "Round",
  "sourceName": "contracts/Round.sol",
  "abi": [
    {
      "inputs": [
        {
          "internalType": "address",
          "name": "token",
          "type": "address"
        },
        {
          "internalType": "address",
          "name": "usdt",
          "type": "address"
        }
      ],
      "stateMutability": "nonpayable",
      "type": "constructor"
    },
    {
      "anonymous": false,
      "inputs": [
        {
          "indexed": true,
          "internalType": "address",
          "name": "previousOwner",
          "type": "address"
        },
        {
          "indexed": true,
          "internalType": "address",
          "name": "newOwner",
          "type": "address"
        }
      ],
      "name": "OwnershipTransferred",
      "type": "event"
    },
    {
      "anonymous": false,
      "inputs": [
        {
          "indexed": true,
          "internalType": "address",
          "name": "user",
          "type": "address"
        },
        {
          "indexed": false,
          "internalType": "uint256",
          "name": "amount",
          "type": "uint256"
        },
        {
          "indexed": false,
          "internalType": "uint256",
          "name": "claimsLeft",
          "type": "uint256"
        },
        {
          "indexed": false,
          "internalType": "uint256",
          "name": "nextUnlockDate",
          "type": "uint256"
        }
      ],
      "name": "TokenClaimed",
      "type": "event"
    },
    {
      "anonymous": false,
      "inputs": [
        {
          "indexed": true,
          "internalType": "address",
          "name": "user",
          "type": "address"
        },
        {
          "indexed": false,
          "internalType": "uint256",
          "name": "amount",
          "type": "uint256"
        }
      ],
      "name": "TokenPurchased",
      "type": "event"
    },
    {
      "inputs": [],
      "name": "CLAIM_PERCENT",
      "outputs": [
        {
          "internalType": "uint256",
          "name": "",
          "type": "uint256"
        }
      ],
      "stateMutability": "view",
      "type": "function"
    },
    {
      "inputs": [],
      "name": "CLIFF",
      "outputs": [
        {
          "internalType": "uint256",
          "name": "",
          "type": "uint256"
        }
      ],
      "stateMutability": "view",
      "type": "function"
    },
    {
      "inputs": [],
      "name": "LOCK_PERIOD",
      "outputs": [
        {
          "internalType": "uint256",
          "name": "",
          "type": "uint256"
        }
      ],
      "stateMutability": "view",
      "type": "function"
    },
    {
      "inputs": [],
      "name": "MIN_PURCHASE",
      "outputs": [
        {
          "internalType": "uint256",
          "name": "",
          "type": "uint256"
        }
      ],
      "stateMutability": "view",
      "type": "function"
    },
    {
      "inputs": [],
      "name": "NUM_CLAIMS",
      "outputs": [
        {
          "internalType": "uint8",
          "name": "",
          "type": "uint8"
        }
      ],
      "stateMutability": "view",
      "type": "function"
    },
    {
      "inputs": [],
      "name": "ROUND_END_DATE",
      "outputs": [
        {
          "internalType": "uint256",
          "name": "",
          "type": "uint256"
        }
      ],
      "stateMutability": "view",
      "type": "function"
    },
    {
      "inputs": [],
      "name": "ROUND_FUND",
      "outputs": [
        {
          "internalType": "uint256",
          "name": "",
          "type": "uint256"
        }
      ],
      "stateMutability": "view",
      "type": "function"
    },
    {
      "inputs": [],
      "name": "ROUND_START_DATE",
      "outputs": [
        {
          "internalType": "uint256",
          "name": "",
          "type": "uint256"
        }
      ],
      "stateMutability": "view",
      "type": "function"
    },
    {
      "inputs": [],
      "name": "TGE",
      "outputs": [
        {
          "internalType": "uint256",
          "name": "",
          "type": "uint256"
        }
      ],
      "stateMutability": "view",
      "type": "function"
    },
    {
      "inputs": [],
      "name": "TOKEN_PRICE_USDT",
      "outputs": [
        {
          "internalType": "uint256",
          "name": "",
          "type": "uint256"
        }
      ],
      "stateMutability": "view",
      "type": "function"
    },
    {
      "inputs": [],
      "name": "TokenAddress",
      "outputs": [
        {
          "internalType": "address",
          "name": "",
          "type": "address"
        }
      ],
      "stateMutability": "view",
      "type": "function"
    },
    {
      "inputs": [],
      "name": "availableTreasury",
      "outputs": [
        {
          "internalType": "uint256",
          "name": "",
          "type": "uint256"
        }
      ],
      "stateMutability": "view",
      "type": "function"
    },
    {
      "inputs": [
        {
          "internalType": "uint256",
          "name": "_amount",
          "type": "uint256"
        }
      ],
      "name": "buyTokens",
      "outputs": [],
      "stateMutability": "nonpayable",
      "type": "function"
    },
    {
      "inputs": [],
      "name": "checkIfActive",
      "outputs": [
        {
          "internalType": "bool",
          "name": "",
          "type": "bool"
        }
      ],
      "stateMutability": "nonpayable",
      "type": "function"
    },
    {
      "inputs": [],
      "name": "claimTokens",
      "outputs": [],
      "stateMutability": "nonpayable",
      "type": "function"
    },
    {
      "inputs": [
        {
          "internalType": "uint256",
          "name": "",
          "type": "uint256"
        }
      ],
      "name": "icoTokenHolders",
      "outputs": [
        {
          "internalType": "address",
          "name": "",
          "type": "address"
        }
      ],
      "stateMutability": "view",
      "type": "function"
    },
    {
      "inputs": [],
      "name": "isActive",
      "outputs": [
        {
          "internalType": "bool",
          "name": "",
          "type": "bool"
        }
      ],
      "stateMutability": "view",
      "type": "function"
    },
    {
      "inputs": [
        {
          "internalType": "uint256",
          "name": "_amount",
          "type": "uint256"
        },
        {
          "internalType": "address",
          "name": "_to",
          "type": "address"
        }
      ],
      "name": "issueTokens",
      "outputs": [],
      "stateMutability": "nonpayable",
      "type": "function"
    },
    {
      "inputs": [],
      "name": "owner",
      "outputs": [
        {
          "internalType": "address",
          "name": "",
          "type": "address"
        }
      ],
      "stateMutability": "view",
      "type": "function"
    },
    {
      "inputs": [],
      "name": "renounceOwnership",
      "outputs": [],
      "stateMutability": "nonpayable",
      "type": "function"
    },
    {
      "inputs": [
        {
          "internalType": "address",
          "name": "newOwner",
          "type": "address"
        }
      ],
      "name": "transferOwnership",
      "outputs": [],
      "stateMutability": "nonpayable",
      "type": "function"
    },
    {
      "inputs": [],
      "name": "usdtAddress",
      "outputs": [
        {
          "internalType": "address",
          "name": "",
          "type": "address"
        }
      ],
      "stateMutability": "view",
      "type": "function"
    },
    {
      "inputs": [
        {
          "internalType": "address",
          "name": "",
          "type": "address"
        }
      ],
      "name": "users",
      "outputs": [
        {
          "internalType": "uint256",
          "name": "totalTokenBalance",
          "type": "uint256"
        },
        {
          "internalType": "uint256",
          "name": "tokensToIssue",
          "type": "uint256"
        },
        {
          "internalType": "uint256",
          "name": "liquidBalance",
          "type": "uint256"
        },
        {
          "internalType": "uint256",
          "name": "pendingForClaim",
          "type": "uint256"
        },
        {
          "internalType": "uint256",
          "name": "nextUnlockDate",
          "type": "uint256"
        },
        {
          "internalType": "uint16",
          "name": "numUnlocks",
          "type": "uint16"
        },
        {
          "internalType": "bool",
          "name": "isLocked",
          "type": "bool"
        },
        {
          "internalType": "uint256",
          "name": "initialPayout",
          "type": "uint256"
        },
        {
          "internalType": "bool",
          "name": "hasBought",
          "type": "bool"
        }
      ],
      "stateMutability": "view",
      "type": "function"
    },
    {
      "inputs": [
        {
          "internalType": "address",
          "name": "_reciever",
          "type": "address"
        }
      ],
      "name": "withdrawRaisedFunds",
      "outputs": [],
      "stateMutability": "nonpayable",
      "type": "function"
    },
    {
      "inputs": [
        {
          "internalType": "address",
          "name": "_reciever",
          "type": "address"
        }
      ],
      "name": "withdrawRemainingToken",
      "outputs": [],
      "stateMutability": "nonpayable",
      "type": "function"
    }
  ],
  "bytecode": "0x60806040526a31a17e847807b1bc0000006005553480156200002057600080fd5b50604051620015f9380380620015f9833981016040819052620000439162000176565b6200004e3362000109565b600180546001600160a01b038481166001600160a01b03199283168117909355600280549185169183168217905560038054831684179055600480549092161781556040516366b700d760e01b815230918101919091526a31a17e847807b1bc00000060248201526366b700d790604401600060405180830381600087803b158015620000da57600080fd5b505af1158015620000ef573d6000803e3d6000fd5b50506006805460ff1916600117905550620001ad92505050565b600080546001600160a01b038381166001600160a01b0319831681178455604051919092169283917f8be0079c531659141344cd1fd0a4f28419497f9722a3daafe3b4186f6b6457e09190a35050565b80516001600160a01b03811681146200017157600080fd5b919050565b6000806040838503121562000189578182fd5b620001948362000159565b9150620001a46020840162000159565b90509250929050565b61143c80620001bd6000396000f3fe608060405234801561001057600080fd5b50600436106101735760003560e01c80638da5cb5b116100de578063c23be47f11610097578063d439390c11610071578063d439390c1461037e578063e6748c5a1461038e578063f2fde38b146103a0578063f8736672146103b357600080fd5b8063c23be47f14610350578063c2cba30614610363578063cb6280391461037657600080fd5b80638da5cb5b1461025e5780639ab4a4451461026f5780639b5856c914610282578063a5bf1cab1461028b578063a87430ba14610296578063b87592f21461034657600080fd5b80634d7b31d7116101305780634d7b31d7146102055780637061b08d1461020e578063715018a6146102285780637805df24146102305780637ad5be88146102435780638867596f1461025657600080fd5b806304cd7ba61461017857806315d331d0146101965780631820cabb146101c157806322f3e2d4146101cb5780633610724e146101e857806348c54b9d146101fd575b600080fd5b61018363637b927081565b6040519081526020015b60405180910390f35b6101a96101a4366004611286565b6103bb565b6040516001600160a01b03909116815260200161018d565b61018362278d0081565b6006546101d89060ff1681565b604051901515815260200161018d565b6101fb6101f6366004611286565b6103e5565b005b6101fb610812565b61018361031681565b610216600c81565b60405160ff909116815260200161018d565b6101fb610b60565b6101fb61023e366004611245565b610b96565b6101fb6102513660046112b6565b610cd0565b610183600581565b6000546001600160a01b03166101a9565b6002546101a9906001600160a01b031681565b61018360055481565b6101836363aefcf081565b6102fa6102a4366004611245565b6007602081905260009182526040909120805460018201546002830154600384015460048501546005860154600687015496909701549496939592949193909261ffff82169260ff620100009093048316921689565b60408051998a5260208a0198909852968801959095526060870193909352608086019190915261ffff1660a0850152151560c084015260e083015215156101008201526101200161018d565b6101836251bd0081565b6101fb61035e366004611245565b610df1565b6001546101a9906001600160a01b031681565b6101d8610eff565b6101836848431755769bb4000081565b6101836a31a17e847807b1bc00000081565b6101fb6103ae366004611245565b610f74565b610183606481565b600881815481106103cb57600080fd5b6000918252602090912001546001600160a01b0316905081565b806848431755769bb400008110156104445760405162461bcd60e51b815260206004820152601f60248201527f4c6f776572207468616e206d696e20707572636861736520616d6f756e74210060448201526064015b60405180910390fd5b60008160055461045491906113b6565b101561049c5760405162461bcd60e51b81526020600482015260176024820152764e6f7420656e6f75676820746f6b656e73206c6566742160481b604482015260640161043b565b63637b92704210806104b157506363aefcf042115b806104bc5750600554155b1561050a576006805460ff1916905560405162461bcd60e51b8152602060048201526014602482015273526f756e64206973206e6f74206163746976652160601b604482015260640161043b565b6006805460ff19166001179055336000606461052861271086611354565b6105329190611374565b60048054604051636eb1769f60e11b8152339281019290925230602483015291925085916001600160a01b03169063dd62ed3e9060440160206040518083038186803b15801561058157600080fd5b505afa158015610595573d6000803e3d6000fd5b505050506040513d601f19601f820116820180604052508101906105b9919061129e565b101561061e5760405162461bcd60e51b815260206004820152602e60248201527f4e6f7420656e6f75676820616c6c6f77616e63652c20617070726f766520796f60448201526d757220555344542066697273742160901b606482015260840161043b565b600480546040516370a0823160e01b81526001600160a01b03858116938201939093528392909116906370a082319060240160206040518083038186803b15801561066857600080fd5b505afa15801561067c573d6000803e3d6000fd5b505050506040513d601f19601f820116820180604052508101906106a0919061129e565b10156106ee5760405162461bcd60e51b815260206004820152601760248201527f4e6f7420656e6f756768205553445420746f6b656e7321000000000000000000604482015260640161043b565b600480546040516323b872dd60e01b81526001600160a01b0385811693820193909352306024820152604481018490529116906323b872dd90606401602060405180830381600087803b15801561074457600080fd5b505af1158015610758573d6000803e3d6000fd5b505050506040513d601f19601f8201168201806040525081019061077c9190611266565b15156001146107cd5760405162461bcd60e51b815260206004820152601860248201527f4661696c656420746f207472616e736665722055534454210000000000000000604482015260640161043b565b6107d7843361100f565b60405184815233907f55c18555197c6574627cf460c66073d10aa05d412468800b7b71feeaf82ea92d9060200160405180910390a250505050565b336000908152600760205260409020600301546108655760405162461bcd60e51b81526020600482015260116024820152704e6f7468696e6720746f20636c61696d2160781b604482015260640161043b565b336000908152600760205260409020600401544210156108c75760405162461bcd60e51b815260206004820152601860248201527f546f6b656e7320617265207374696c6c206c6f636b6564210000000000000000604482015260640161043b565b33600081815260076020526040812060058101805462ff000019169081905590919062010000900460ff16156109345760405162461bcd60e51b8152602060048201526012602482015271546f6b656e7320617265206c6f636b65642160701b604482015260640161043b565b6109406001600c6113cd565b600583015460ff9190911661ffff909116101561097d57610316612710836001015461096c9190611354565b6109769190611374565b90506109f1565b6109896001600c6113cd565b600583015461ffff1660ff9190911614156109a9575060038101546109f1565b60405162461bcd60e51b815260206004820152601e60248201527f45766572797468696e6720697320616c726561647920636c61696d6564210000604482015260640161043b565b60058201805462ff00001916620100001790556003546040516340c10f1960e01b81526001600160a01b03858116600483015260248201849052909116906340c10f1990604401600060405180830381600087803b158015610a5257600080fd5b505af1158015610a66573d6000803e3d6000fd5b5050505080826002016000828254610a7e919061133c565b9250508190555080826003016000828254610a9991906113b6565b9250508190555062278d00826004016000828254610ab7919061133c565b909155505060058201805460019190600090610ad890849061ffff16611316565b82546101009290920a61ffff81810219909316918316021790915560058401546001600160a01b03861692507f0886cb285f2e8c3531fc0ef6a4c365909b5f707ea98b34b5fe6d047c208687a4918491610b349116600c611393565b60048601546040805193845261ffff9092166020840152908201526060015b60405180910390a2505050565b6000546001600160a01b03163314610b8a5760405162461bcd60e51b815260040161043b906112e1565b610b9460006111d9565b565b6000546001600160a01b03163314610bc05760405162461bcd60e51b815260040161043b906112e1565b600480546040516370a0823160e01b815230928101929092526000916001600160a01b03909116906370a082319060240160206040518083038186803b158015610c0957600080fd5b505afa158015610c1d573d6000803e3d6000fd5b505050506040513d601f19601f82011682018060405250810190610c41919061129e565b6004805460405163a9059cbb60e01b81526001600160a01b038681169382019390935260248101849052929350169063a9059cbb90604401602060405180830381600087803b158015610c9357600080fd5b505af1158015610ca7573d6000803e3d6000fd5b505050506040513d601f19601f82011682018060405250810190610ccb9190611266565b505050565b816848431755769bb40000811015610d2a5760405162461bcd60e51b815260206004820152601f60248201527f4c6f776572207468616e206d696e20707572636861736520616d6f756e742100604482015260640161043b565b600081600554610d3a91906113b6565b1015610d825760405162461bcd60e51b81526020600482015260176024820152764e6f7420656e6f75676820746f6b656e73206c6566742160481b604482015260640161043b565b6000546001600160a01b03163314610dac5760405162461bcd60e51b815260040161043b906112e1565b610db6838361100f565b816001600160a01b03167f55c18555197c6574627cf460c66073d10aa05d412468800b7b71feeaf82ea92d84604051610b5391815260200190565b6000546001600160a01b03163314610e1b5760405162461bcd60e51b815260040161043b906112e1565b6363aefcf04211158015610e3157506000600554115b15610e84576006805460ff1916600117905560405162461bcd60e51b8152602060048201526016602482015275526f756e64206973207374696c6c206163746976652160501b604482015260640161043b565b6006805460ff191690556003546005546040516340c10f1960e01b81526001600160a01b03848116600483015260248201929092529116906340c10f1990604401600060405180830381600087803b158015610edf57600080fd5b505af1158015610ef3573d6000803e3d6000fd5b50506000600555505050565b600063637b927042111580610f1857506363aefcf04210155b80610f235750600554155b15610f33576006805460ff191690555b63637b927042118015610f4957506363aefcf042105b8015610f5757506000600554115b15610f6a576006805460ff191660011790555b5060065460ff1690565b6000546001600160a01b03163314610f9e5760405162461bcd60e51b815260040161043b906112e1565b6001600160a01b0381166110035760405162461bcd60e51b815260206004820152602660248201527f4f776e61626c653a206e6577206f776e657220697320746865207a65726f206160448201526564647265737360d01b606482015260840161043b565b61100c816111d9565b50565b6001600160a01b03811660009081526007602052604081209042906005611037606487611354565b6110419190611374565b6003546040516340c10f1960e01b81526001600160a01b038781166004830152602482018490529293509116906340c10f1990604401600060405180830381600087803b15801561109157600080fd5b505af11580156110a5573d6000803e3d6000fd5b50505050808360060160008282546110bd919061133c565b92505081905550808360020160008282546110d8919061133c565b909155506110e8905081866113b6565b8360030160008282546110fb919061133c565b90915550506001830185905560058301805461ffff19169055600783015460ff1661117c5760088054600180820183556000929092527ff3f7a9fe364faab93b216da50a3214154f22a0a2b415b23a84c8169e8b636ee30180546001600160a01b0319166001600160a01b03871617905560078401805460ff191690911790555b84836000016000828254611190919061133c565b9250508190555084600560008282546111a991906113b6565b909155506111bc90506251bd008361133c565b60048401555050600501805462ff00001916620100001790555050565b600080546001600160a01b038381166001600160a01b0319831681178455604051919092169283917f8be0079c531659141344cd1fd0a4f28419497f9722a3daafe3b4186f6b6457e09190a35050565b80356001600160a01b038116811461124057600080fd5b919050565b600060208284031215611256578081fd5b61125f82611229565b9392505050565b600060208284031215611277578081fd5b8151801515811461125f578182fd5b600060208284031215611297578081fd5b5035919050565b6000602082840312156112af578081fd5b5051919050565b600080604083850312156112c8578081fd5b823591506112d860208401611229565b90509250929050565b6020808252818101527f4f776e61626c653a2063616c6c6572206973206e6f7420746865206f776e6572604082015260600190565b600061ffff808316818516808303821115611333576113336113f0565b01949350505050565b6000821982111561134f5761134f6113f0565b500190565b60008261136f57634e487b7160e01b81526012600452602481fd5b500490565b600081600019048311821515161561138e5761138e6113f0565b500290565b600061ffff838116908316818110156113ae576113ae6113f0565b039392505050565b6000828210156113c8576113c86113f0565b500390565b600060ff821660ff8416808210156113e7576113e76113f0565b90039392505050565b634e487b7160e01b600052601160045260246000fdfea26469706673582212208f4bd195526e24a8450316bdb2f463fd3b0532ef1a4b5eb406a11c3415e54dc364736f6c63430008040033",
  "linkReferences": {},
  "deployedLinkReferences": {}
}