{
  "contracts/Round.sol": {
    "Round": {
      "abi": [
        {
          "inputs": [
            {
              "internalType": "address",
              "name": "token",
              "type": "address"
            },
            {
              "internalType": "address",
              "name": "usdt",
              "type": "address"
            }
          ],
          "stateMutability": "nonpayable",
          "type": "constructor"
        },
        {
          "anonymous": false,
          "inputs": [
            {
              "indexed": true,
              "internalType": "address",
              "name": "previousOwner",
              "type": "address"
            },
            {
              "indexed": true,
              "internalType": "address",
              "name": "newOwner",
              "type": "address"
            }
          ],
          "name": "OwnershipTransferred",
          "type": "event"
        },
        {
          "anonymous": false,
          "inputs": [
            {
              "indexed": true,
              "internalType": "address",
              "name": "user",
              "type": "address"
            },
            {
              "indexed": false,
              "internalType": "uint256",
              "name": "amount",
              "type": "uint256"
            },
            {
              "indexed": false,
              "internalType": "uint256",
              "name": "claimsLeft",
              "type": "uint256"
            },
            {
              "indexed": false,
              "internalType": "uint256",
              "name": "nextUnlockDate",
              "type": "uint256"
            }
          ],
          "name": "TokenClaimed",
          "type": "event"
        },
        {
          "anonymous": false,
          "inputs": [
            {
              "indexed": true,
              "internalType": "address",
              "name": "user",
              "type": "address"
            },
            {
              "indexed": false,
              "internalType": "uint256",
              "name": "amount",
              "type": "uint256"
            }
          ],
          "name": "TokenPurchased",
          "type": "event"
        },
        {
          "inputs": [],
          "name": "CLAIM_PERCENT",
          "outputs": [
            {
              "internalType": "uint256",
              "name": "",
              "type": "uint256"
            }
          ],
          "stateMutability": "view",
          "type": "function"
        },
        {
          "inputs": [],
          "name": "CLIFF",
          "outputs": [
            {
              "internalType": "uint256",
              "name": "",
              "type": "uint256"
            }
          ],
          "stateMutability": "view",
          "type": "function"
        },
        {
          "inputs": [],
          "name": "LOCK_PERIOD",
          "outputs": [
            {
              "internalType": "uint256",
              "name": "",
              "type": "uint256"
            }
          ],
          "stateMutability": "view",
          "type": "function"
        },
        {
          "inputs": [],
          "name": "MIN_PURCHASE",
          "outputs": [
            {
              "internalType": "uint256",
              "name": "",
              "type": "uint256"
            }
          ],
          "stateMutability": "view",
          "type": "function"
        },
        {
          "inputs": [],
          "name": "NUM_CLAIMS",
          "outputs": [
            {
              "internalType": "uint8",
              "name": "",
              "type": "uint8"
            }
          ],
          "stateMutability": "view",
          "type": "function"
        },
        {
          "inputs": [],
          "name": "ROUND_END_DATE",
          "outputs": [
            {
              "internalType": "uint256",
              "name": "",
              "type": "uint256"
            }
          ],
          "stateMutability": "view",
          "type": "function"
        },
        {
          "inputs": [],
          "name": "ROUND_FUND",
          "outputs": [
            {
              "internalType": "uint256",
              "name": "",
              "type": "uint256"
            }
          ],
          "stateMutability": "view",
          "type": "function"
        },
        {
          "inputs": [],
          "name": "ROUND_START_DATE",
          "outputs": [
            {
              "internalType": "uint256",
              "name": "",
              "type": "uint256"
            }
          ],
          "stateMutability": "view",
          "type": "function"
        },
        {
          "inputs": [],
          "name": "TGE",
          "outputs": [
            {
              "internalType": "uint256",
              "name": "",
              "type": "uint256"
            }
          ],
          "stateMutability": "view",
          "type": "function"
        },
        {
          "inputs": [],
          "name": "TOKEN_PRICE_USDT",
          "outputs": [
            {
              "internalType": "uint256",
              "name": "",
              "type": "uint256"
            }
          ],
          "stateMutability": "view",
          "type": "function"
        },
        {
          "inputs": [],
          "name": "TokenAddress",
          "outputs": [
            {
              "internalType": "address",
              "name": "",
              "type": "address"
            }
          ],
          "stateMutability": "view",
          "type": "function"
        },
        {
          "inputs": [],
          "name": "availableTreasury",
          "outputs": [
            {
              "internalType": "uint256",
              "name": "",
              "type": "uint256"
            }
          ],
          "stateMutability": "view",
          "type": "function"
        },
        {
          "inputs": [
            {
              "internalType": "uint256",
              "name": "_amount",
              "type": "uint256"
            }
          ],
          "name": "buyTokens",
          "outputs": [],
          "stateMutability": "nonpayable",
          "type": "function"
        },
        {
          "inputs": [],
          "name": "checkIfActive",
          "outputs": [
            {
              "internalType": "bool",
              "name": "",
              "type": "bool"
            }
          ],
          "stateMutability": "nonpayable",
          "type": "function"
        },
        {
          "inputs": [],
          "name": "claimTokens",
          "outputs": [],
          "stateMutability": "nonpayable",
          "type": "function"
        },
        {
          "inputs": [
            {
              "internalType": "uint256",
              "name": "",
              "type": "uint256"
            }
          ],
          "name": "icoTokenHolders",
          "outputs": [
            {
              "internalType": "address",
              "name": "",
              "type": "address"
            }
          ],
          "stateMutability": "view",
          "type": "function"
        },
        {
          "inputs": [],
          "name": "isActive",
          "outputs": [
            {
              "internalType": "bool",
              "name": "",
              "type": "bool"
            }
          ],
          "stateMutability": "view",
          "type": "function"
        },
        {
          "inputs": [
            {
              "internalType": "uint256",
              "name": "_amount",
              "type": "uint256"
            },
            {
              "internalType": "address",
              "name": "_to",
              "type": "address"
            }
          ],
          "name": "issueTokens",
          "outputs": [],
          "stateMutability": "nonpayable",
          "type": "function"
        },
        {
          "inputs": [],
          "name": "owner",
          "outputs": [
            {
              "internalType": "address",
              "name": "",
              "type": "address"
            }
          ],
          "stateMutability": "view",
          "type": "function"
        },
        {
          "inputs": [],
          "name": "renounceOwnership",
          "outputs": [],
          "stateMutability": "nonpayable",
          "type": "function"
        },
        {
          "inputs": [
            {
              "internalType": "address",
              "name": "newOwner",
              "type": "address"
            }
          ],
          "name": "transferOwnership",
          "outputs": [],
          "stateMutability": "nonpayable",
          "type": "function"
        },
        {
          "inputs": [],
          "name": "usdtAddress",
          "outputs": [
            {
              "internalType": "address",
              "name": "",
              "type": "address"
            }
          ],
          "stateMutability": "view",
          "type": "function"
        },
        {
          "inputs": [
            {
              "internalType": "address",
              "name": "",
              "type": "address"
            }
          ],
          "name": "users",
          "outputs": [
            {
              "internalType": "uint256",
              "name": "totalTokenBalance",
              "type": "uint256"
            },
            {
              "internalType": "uint256",
              "name": "tokensToIssue",
              "type": "uint256"
            },
            {
              "internalType": "uint256",
              "name": "liquidBalance",
              "type": "uint256"
            },
            {
              "internalType": "uint256",
              "name": "pendingForClaim",
              "type": "uint256"
            },
            {
              "internalType": "uint256",
              "name": "nextUnlockDate",
              "type": "uint256"
            },
            {
              "internalType": "uint16",
              "name": "numUnlocks",
              "type": "uint16"
            },
            {
              "internalType": "bool",
              "name": "isLocked",
              "type": "bool"
            },
            {
              "internalType": "uint256",
              "name": "initialPayout",
              "type": "uint256"
            },
            {
              "internalType": "bool",
              "name": "hasBought",
              "type": "bool"
            }
          ],
          "stateMutability": "view",
          "type": "function"
        },
        {
          "inputs": [
            {
              "internalType": "address",
              "name": "_reciever",
              "type": "address"
            }
          ],
          "name": "withdrawRaisedFunds",
          "outputs": [],
          "stateMutability": "nonpayable",
          "type": "function"
        },
        {
          "inputs": [
            {
              "internalType": "address",
              "name": "_reciever",
              "type": "address"
            }
          ],
          "name": "withdrawRemainingToken",
          "outputs": [],
          "stateMutability": "nonpayable",
          "type": "function"
        }
      ],
      "devdoc": {
        "kind": "dev",
        "methods": {
          "owner()": {
            "details": "Returns the address of the current owner."
          },
          "renounceOwnership()": {
            "details": "Leaves the contract without owner. It will not be possible to call `onlyOwner` functions anymore. Can only be called by the current owner. NOTE: Renouncing ownership will leave the contract without an owner, thereby removing any functionality that is only available to the owner."
          },
          "transferOwnership(address)": {
            "details": "Transfers ownership of the contract to a new account (`newOwner`). Can only be called by the current owner."
          }
        },
        "version": 1
      },
      "evm": {
        "bytecode": {
          "linkReferences": {},
          "object": "60806040526a31a17e847807b1bc0000006005553480156200002057600080fd5b50604051620015f9380380620015f9833981016040819052620000439162000176565b6200004e3362000109565b600180546001600160a01b038481166001600160a01b03199283168117909355600280549185169183168217905560038054831684179055600480549092161781556040516366b700d760e01b815230918101919091526a31a17e847807b1bc00000060248201526366b700d790604401600060405180830381600087803b158015620000da57600080fd5b505af1158015620000ef573d6000803e3d6000fd5b50506006805460ff1916600117905550620001ad92505050565b600080546001600160a01b038381166001600160a01b0319831681178455604051919092169283917f8be0079c531659141344cd1fd0a4f28419497f9722a3daafe3b4186f6b6457e09190a35050565b80516001600160a01b03811681146200017157600080fd5b919050565b6000806040838503121562000189578182fd5b620001948362000159565b9150620001a46020840162000159565b90509250929050565b61143c80620001bd6000396000f3fe608060405234801561001057600080fd5b50600436106101735760003560e01c80638da5cb5b116100de578063c23be47f11610097578063d439390c11610071578063d439390c1461037e578063e6748c5a1461038e578063f2fde38b146103a0578063f8736672146103b357600080fd5b8063c23be47f14610350578063c2cba30614610363578063cb6280391461037657600080fd5b80638da5cb5b1461025e5780639ab4a4451461026f5780639b5856c914610282578063a5bf1cab1461028b578063a87430ba14610296578063b87592f21461034657600080fd5b80634d7b31d7116101305780634d7b31d7146102055780637061b08d1461020e578063715018a6146102285780637805df24146102305780637ad5be88146102435780638867596f1461025657600080fd5b806304cd7ba61461017857806315d331d0146101965780631820cabb146101c157806322f3e2d4146101cb5780633610724e146101e857806348c54b9d146101fd575b600080fd5b61018363637b927081565b6040519081526020015b60405180910390f35b6101a96101a4366004611286565b6103bb565b6040516001600160a01b03909116815260200161018d565b61018362278d0081565b6006546101d89060ff1681565b604051901515815260200161018d565b6101fb6101f6366004611286565b6103e5565b005b6101fb610812565b61018361031681565b610216600c81565b60405160ff909116815260200161018d565b6101fb610b60565b6101fb61023e366004611245565b610b96565b6101fb6102513660046112b6565b610cd0565b610183600581565b6000546001600160a01b03166101a9565b6002546101a9906001600160a01b031681565b61018360055481565b6101836363aefcf081565b6102fa6102a4366004611245565b6007602081905260009182526040909120805460018201546002830154600384015460048501546005860154600687015496909701549496939592949193909261ffff82169260ff620100009093048316921689565b60408051998a5260208a0198909852968801959095526060870193909352608086019190915261ffff1660a0850152151560c084015260e083015215156101008201526101200161018d565b6101836251bd0081565b6101fb61035e366004611245565b610df1565b6001546101a9906001600160a01b031681565b6101d8610eff565b6101836848431755769bb4000081565b6101836a31a17e847807b1bc00000081565b6101fb6103ae366004611245565b610f74565b610183606481565b600881815481106103cb57600080fd5b6000918252602090912001546001600160a01b0316905081565b806848431755769bb400008110156104445760405162461bcd60e51b815260206004820152601f60248201527f4c6f776572207468616e206d696e20707572636861736520616d6f756e74210060448201526064015b60405180910390fd5b60008160055461045491906113b6565b101561049c5760405162461bcd60e51b81526020600482015260176024820152764e6f7420656e6f75676820746f6b656e73206c6566742160481b604482015260640161043b565b63637b92704210806104b157506363aefcf042115b806104bc5750600554155b1561050a576006805460ff1916905560405162461bcd60e51b8152602060048201526014602482015273526f756e64206973206e6f74206163746976652160601b604482015260640161043b565b6006805460ff19166001179055336000606461052861271086611354565b6105329190611374565b60048054604051636eb1769f60e11b8152339281019290925230602483015291925085916001600160a01b03169063dd62ed3e9060440160206040518083038186803b15801561058157600080fd5b505afa158015610595573d6000803e3d6000fd5b505050506040513d601f19601f820116820180604052508101906105b9919061129e565b101561061e5760405162461bcd60e51b815260206004820152602e60248201527f4e6f7420656e6f75676820616c6c6f77616e63652c20617070726f766520796f60448201526d757220555344542066697273742160901b606482015260840161043b565b600480546040516370a0823160e01b81526001600160a01b03858116938201939093528392909116906370a082319060240160206040518083038186803b15801561066857600080fd5b505afa15801561067c573d6000803e3d6000fd5b505050506040513d601f19601f820116820180604052508101906106a0919061129e565b10156106ee5760405162461bcd60e51b815260206004820152601760248201527f4e6f7420656e6f756768205553445420746f6b656e7321000000000000000000604482015260640161043b565b600480546040516323b872dd60e01b81526001600160a01b0385811693820193909352306024820152604481018490529116906323b872dd90606401602060405180830381600087803b15801561074457600080fd5b505af1158015610758573d6000803e3d6000fd5b505050506040513d601f19601f8201168201806040525081019061077c9190611266565b15156001146107cd5760405162461bcd60e51b815260206004820152601860248201527f4661696c656420746f207472616e736665722055534454210000000000000000604482015260640161043b565b6107d7843361100f565b60405184815233907f55c18555197c6574627cf460c66073d10aa05d412468800b7b71feeaf82ea92d9060200160405180910390a250505050565b336000908152600760205260409020600301546108655760405162461bcd60e51b81526020600482015260116024820152704e6f7468696e6720746f20636c61696d2160781b604482015260640161043b565b336000908152600760205260409020600401544210156108c75760405162461bcd60e51b815260206004820152601860248201527f546f6b656e7320617265207374696c6c206c6f636b6564210000000000000000604482015260640161043b565b33600081815260076020526040812060058101805462ff000019169081905590919062010000900460ff16156109345760405162461bcd60e51b8152602060048201526012602482015271546f6b656e7320617265206c6f636b65642160701b604482015260640161043b565b6109406001600c6113cd565b600583015460ff9190911661ffff909116101561097d57610316612710836001015461096c9190611354565b6109769190611374565b90506109f1565b6109896001600c6113cd565b600583015461ffff1660ff9190911614156109a9575060038101546109f1565b60405162461bcd60e51b815260206004820152601e60248201527f45766572797468696e6720697320616c726561647920636c61696d6564210000604482015260640161043b565b60058201805462ff00001916620100001790556003546040516340c10f1960e01b81526001600160a01b03858116600483015260248201849052909116906340c10f1990604401600060405180830381600087803b158015610a5257600080fd5b505af1158015610a66573d6000803e3d6000fd5b5050505080826002016000828254610a7e919061133c565b9250508190555080826003016000828254610a9991906113b6565b9250508190555062278d00826004016000828254610ab7919061133c565b909155505060058201805460019190600090610ad890849061ffff16611316565b82546101009290920a61ffff81810219909316918316021790915560058401546001600160a01b03861692507f0886cb285f2e8c3531fc0ef6a4c365909b5f707ea98b34b5fe6d047c208687a4918491610b349116600c611393565b60048601546040805193845261ffff9092166020840152908201526060015b60405180910390a2505050565b6000546001600160a01b03163314610b8a5760405162461bcd60e51b815260040161043b906112e1565b610b9460006111d9565b565b6000546001600160a01b03163314610bc05760405162461bcd60e51b815260040161043b906112e1565b600480546040516370a0823160e01b815230928101929092526000916001600160a01b03909116906370a082319060240160206040518083038186803b158015610c0957600080fd5b505afa158015610c1d573d6000803e3d6000fd5b505050506040513d601f19601f82011682018060405250810190610c41919061129e565b6004805460405163a9059cbb60e01b81526001600160a01b038681169382019390935260248101849052929350169063a9059cbb90604401602060405180830381600087803b158015610c9357600080fd5b505af1158015610ca7573d6000803e3d6000fd5b505050506040513d601f19601f82011682018060405250810190610ccb9190611266565b505050565b816848431755769bb40000811015610d2a5760405162461bcd60e51b815260206004820152601f60248201527f4c6f776572207468616e206d696e20707572636861736520616d6f756e742100604482015260640161043b565b600081600554610d3a91906113b6565b1015610d825760405162461bcd60e51b81526020600482015260176024820152764e6f7420656e6f75676820746f6b656e73206c6566742160481b604482015260640161043b565b6000546001600160a01b03163314610dac5760405162461bcd60e51b815260040161043b906112e1565b610db6838361100f565b816001600160a01b03167f55c18555197c6574627cf460c66073d10aa05d412468800b7b71feeaf82ea92d84604051610b5391815260200190565b6000546001600160a01b03163314610e1b5760405162461bcd60e51b815260040161043b906112e1565b6363aefcf04211158015610e3157506000600554115b15610e84576006805460ff1916600117905560405162461bcd60e51b8152602060048201526016602482015275526f756e64206973207374696c6c206163746976652160501b604482015260640161043b565b6006805460ff191690556003546005546040516340c10f1960e01b81526001600160a01b03848116600483015260248201929092529116906340c10f1990604401600060405180830381600087803b158015610edf57600080fd5b505af1158015610ef3573d6000803e3d6000fd5b50506000600555505050565b600063637b927042111580610f1857506363aefcf04210155b80610f235750600554155b15610f33576006805460ff191690555b63637b927042118015610f4957506363aefcf042105b8015610f5757506000600554115b15610f6a576006805460ff191660011790555b5060065460ff1690565b6000546001600160a01b03163314610f9e5760405162461bcd60e51b815260040161043b906112e1565b6001600160a01b0381166110035760405162461bcd60e51b815260206004820152602660248201527f4f776e61626c653a206e6577206f776e657220697320746865207a65726f206160448201526564647265737360d01b606482015260840161043b565b61100c816111d9565b50565b6001600160a01b03811660009081526007602052604081209042906005611037606487611354565b6110419190611374565b6003546040516340c10f1960e01b81526001600160a01b038781166004830152602482018490529293509116906340c10f1990604401600060405180830381600087803b15801561109157600080fd5b505af11580156110a5573d6000803e3d6000fd5b50505050808360060160008282546110bd919061133c565b92505081905550808360020160008282546110d8919061133c565b909155506110e8905081866113b6565b8360030160008282546110fb919061133c565b90915550506001830185905560058301805461ffff19169055600783015460ff1661117c5760088054600180820183556000929092527ff3f7a9fe364faab93b216da50a3214154f22a0a2b415b23a84c8169e8b636ee30180546001600160a01b0319166001600160a01b03871617905560078401805460ff191690911790555b84836000016000828254611190919061133c565b9250508190555084600560008282546111a991906113b6565b909155506111bc90506251bd008361133c565b60048401555050600501805462ff00001916620100001790555050565b600080546001600160a01b038381166001600160a01b0319831681178455604051919092169283917f8be0079c531659141344cd1fd0a4f28419497f9722a3daafe3b4186f6b6457e09190a35050565b80356001600160a01b038116811461124057600080fd5b919050565b600060208284031215611256578081fd5b61125f82611229565b9392505050565b600060208284031215611277578081fd5b8151801515811461125f578182fd5b600060208284031215611297578081fd5b5035919050565b6000602082840312156112af578081fd5b5051919050565b600080604083850312156112c8578081fd5b823591506112d860208401611229565b90509250929050565b6020808252818101527f4f776e61626c653a2063616c6c6572206973206e6f7420746865206f776e6572604082015260600190565b600061ffff808316818516808303821115611333576113336113f0565b01949350505050565b6000821982111561134f5761134f6113f0565b500190565b60008261136f57634e487b7160e01b81526012600452602481fd5b500490565b600081600019048311821515161561138e5761138e6113f0565b500290565b600061ffff838116908316818110156113ae576113ae6113f0565b039392505050565b6000828210156113c8576113c86113f0565b500390565b600060ff821660ff8416808210156113e7576113e76113f0565b90039392505050565b634e487b7160e01b600052601160045260246000fdfea26469706673582212208f4bd195526e24a8450316bdb2f463fd3b0532ef1a4b5eb406a11c3415e54dc364736f6c63430008040033",
          "opcodes": "PUSH1 0x80 PUSH1 0x40 MSTORE PUSH11 0x31A17E847807B1BC000000 PUSH1 0x5 SSTORE CALLVALUE DUP1 ISZERO PUSH3 0x20 JUMPI PUSH1 0x0 DUP1 REVERT JUMPDEST POP PUSH1 0x40 MLOAD PUSH3 0x15F9 CODESIZE SUB DUP1 PUSH3 0x15F9 DUP4 CODECOPY DUP2 ADD PUSH1 0x40 DUP2 SWAP1 MSTORE PUSH3 0x43 SWAP2 PUSH3 0x176 JUMP JUMPDEST PUSH3 0x4E CALLER PUSH3 0x109 JUMP JUMPDEST PUSH1 0x1 DUP1 SLOAD PUSH1 0x1 PUSH1 0x1 PUSH1 0xA0 SHL SUB DUP5 DUP2 AND PUSH1 0x1 PUSH1 0x1 PUSH1 0xA0 SHL SUB NOT SWAP3 DUP4 AND DUP2 OR SWAP1 SWAP4 SSTORE PUSH1 0x2 DUP1 SLOAD SWAP2 DUP6 AND SWAP2 DUP4 AND DUP3 OR SWAP1 SSTORE PUSH1 0x3 DUP1 SLOAD DUP4 AND DUP5 OR SWAP1 SSTORE PUSH1 0x4 DUP1 SLOAD SWAP1 SWAP3 AND OR DUP2 SSTORE PUSH1 0x40 MLOAD PUSH4 0x66B700D7 PUSH1 0xE0 SHL DUP2 MSTORE ADDRESS SWAP2 DUP2 ADD SWAP2 SWAP1 SWAP2 MSTORE PUSH11 0x31A17E847807B1BC000000 PUSH1 0x24 DUP3 ADD MSTORE PUSH4 0x66B700D7 SWAP1 PUSH1 0x44 ADD PUSH1 0x0 PUSH1 0x40 MLOAD DUP1 DUP4 SUB DUP2 PUSH1 0x0 DUP8 DUP1 EXTCODESIZE ISZERO DUP1 ISZERO PUSH3 0xDA JUMPI PUSH1 0x0 DUP1 REVERT JUMPDEST POP GAS CALL ISZERO DUP1 ISZERO PUSH3 0xEF JUMPI RETURNDATASIZE PUSH1 0x0 DUP1 RETURNDATACOPY RETURNDATASIZE PUSH1 0x0 REVERT JUMPDEST POP POP PUSH1 0x6 DUP1 SLOAD PUSH1 0xFF NOT AND PUSH1 0x1 OR SWAP1 SSTORE POP PUSH3 0x1AD SWAP3 POP POP POP JUMP JUMPDEST PUSH1 0x0 DUP1 SLOAD PUSH1 0x1 PUSH1 0x1 PUSH1 0xA0 SHL SUB DUP4 DUP2 AND PUSH1 0x1 PUSH1 0x1 PUSH1 0xA0 SHL SUB NOT DUP4 AND DUP2 OR DUP5 SSTORE PUSH1 0x40 MLOAD SWAP2 SWAP1 SWAP3 AND SWAP3 DUP4 SWAP2 PUSH32 0x8BE0079C531659141344CD1FD0A4F28419497F9722A3DAAFE3B4186F6B6457E0 SWAP2 SWAP1 LOG3 POP POP JUMP JUMPDEST DUP1 MLOAD PUSH1 0x1 PUSH1 0x1 PUSH1 0xA0 SHL SUB DUP2 AND DUP2 EQ PUSH3 0x171 JUMPI PUSH1 0x0 DUP1 REVERT JUMPDEST SWAP2 SWAP1 POP JUMP JUMPDEST PUSH1 0x0 DUP1 PUSH1 0x40 DUP4 DUP6 SUB SLT ISZERO PUSH3 0x189 JUMPI DUP2 DUP3 REVERT JUMPDEST PUSH3 0x194 DUP4 PUSH3 0x159 JUMP JUMPDEST SWAP2 POP PUSH3 0x1A4 PUSH1 0x20 DUP5 ADD PUSH3 0x159 JUMP JUMPDEST SWAP1 POP SWAP3 POP SWAP3 SWAP1 POP JUMP JUMPDEST PUSH2 0x143C DUP1 PUSH3 0x1BD PUSH1 0x0 CODECOPY PUSH1 0x0 RETURN INVALID PUSH1 0x80 PUSH1 0x40 MSTORE CALLVALUE DUP1 ISZERO PUSH2 0x10 JUMPI PUSH1 0x0 DUP1 REVERT JUMPDEST POP PUSH1 0x4 CALLDATASIZE LT PUSH2 0x173 JUMPI PUSH1 0x0 CALLDATALOAD PUSH1 0xE0 SHR DUP1 PUSH4 0x8DA5CB5B GT PUSH2 0xDE JUMPI DUP1 PUSH4 0xC23BE47F GT PUSH2 0x97 JUMPI DUP1 PUSH4 0xD439390C GT PUSH2 0x71 JUMPI DUP1 PUSH4 0xD439390C EQ PUSH2 0x37E JUMPI DUP1 PUSH4 0xE6748C5A EQ PUSH2 0x38E JUMPI DUP1 PUSH4 0xF2FDE38B EQ PUSH2 0x3A0 JUMPI DUP1 PUSH4 0xF8736672 EQ PUSH2 0x3B3 JUMPI PUSH1 0x0 DUP1 REVERT JUMPDEST DUP1 PUSH4 0xC23BE47F EQ PUSH2 0x350 JUMPI DUP1 PUSH4 0xC2CBA306 EQ PUSH2 0x363 JUMPI DUP1 PUSH4 0xCB628039 EQ PUSH2 0x376 JUMPI PUSH1 0x0 DUP1 REVERT JUMPDEST DUP1 PUSH4 0x8DA5CB5B EQ PUSH2 0x25E JUMPI DUP1 PUSH4 0x9AB4A445 EQ PUSH2 0x26F JUMPI DUP1 PUSH4 0x9B5856C9 EQ PUSH2 0x282 JUMPI DUP1 PUSH4 0xA5BF1CAB EQ PUSH2 0x28B JUMPI DUP1 PUSH4 0xA87430BA EQ PUSH2 0x296 JUMPI DUP1 PUSH4 0xB87592F2 EQ PUSH2 0x346 JUMPI PUSH1 0x0 DUP1 REVERT JUMPDEST DUP1 PUSH4 0x4D7B31D7 GT PUSH2 0x130 JUMPI DUP1 PUSH4 0x4D7B31D7 EQ PUSH2 0x205 JUMPI DUP1 PUSH4 0x7061B08D EQ PUSH2 0x20E JUMPI DUP1 PUSH4 0x715018A6 EQ PUSH2 0x228 JUMPI DUP1 PUSH4 0x7805DF24 EQ PUSH2 0x230 JUMPI DUP1 PUSH4 0x7AD5BE88 EQ PUSH2 0x243 JUMPI DUP1 PUSH4 0x8867596F EQ PUSH2 0x256 JUMPI PUSH1 0x0 DUP1 REVERT JUMPDEST DUP1 PUSH4 0x4CD7BA6 EQ PUSH2 0x178 JUMPI DUP1 PUSH4 0x15D331D0 EQ PUSH2 0x196 JUMPI DUP1 PUSH4 0x1820CABB EQ PUSH2 0x1C1 JUMPI DUP1 PUSH4 0x22F3E2D4 EQ PUSH2 0x1CB JUMPI DUP1 PUSH4 0x3610724E EQ PUSH2 0x1E8 JUMPI DUP1 PUSH4 0x48C54B9D EQ PUSH2 0x1FD JUMPI JUMPDEST PUSH1 0x0 DUP1 REVERT JUMPDEST PUSH2 0x183 PUSH4 0x637B9270 DUP2 JUMP JUMPDEST PUSH1 0x40 MLOAD SWAP1 DUP2 MSTORE PUSH1 0x20 ADD JUMPDEST PUSH1 0x40 MLOAD DUP1 SWAP2 SUB SWAP1 RETURN JUMPDEST PUSH2 0x1A9 PUSH2 0x1A4 CALLDATASIZE PUSH1 0x4 PUSH2 0x1286 JUMP JUMPDEST PUSH2 0x3BB JUMP JUMPDEST PUSH1 0x40 MLOAD PUSH1 0x1 PUSH1 0x1 PUSH1 0xA0 SHL SUB SWAP1 SWAP2 AND DUP2 MSTORE PUSH1 0x20 ADD PUSH2 0x18D JUMP JUMPDEST PUSH2 0x183 PUSH3 0x278D00 DUP2 JUMP JUMPDEST PUSH1 0x6 SLOAD PUSH2 0x1D8 SWAP1 PUSH1 0xFF AND DUP2 JUMP JUMPDEST PUSH1 0x40 MLOAD SWAP1 ISZERO ISZERO DUP2 MSTORE PUSH1 0x20 ADD PUSH2 0x18D JUMP JUMPDEST PUSH2 0x1FB PUSH2 0x1F6 CALLDATASIZE PUSH1 0x4 PUSH2 0x1286 JUMP JUMPDEST PUSH2 0x3E5 JUMP JUMPDEST STOP JUMPDEST PUSH2 0x1FB PUSH2 0x812 JUMP JUMPDEST PUSH2 0x183 PUSH2 0x316 DUP2 JUMP JUMPDEST PUSH2 0x216 PUSH1 0xC DUP2 JUMP JUMPDEST PUSH1 0x40 MLOAD PUSH1 0xFF SWAP1 SWAP2 AND DUP2 MSTORE PUSH1 0x20 ADD PUSH2 0x18D JUMP JUMPDEST PUSH2 0x1FB PUSH2 0xB60 JUMP JUMPDEST PUSH2 0x1FB PUSH2 0x23E CALLDATASIZE PUSH1 0x4 PUSH2 0x1245 JUMP JUMPDEST PUSH2 0xB96 JUMP JUMPDEST PUSH2 0x1FB PUSH2 0x251 CALLDATASIZE PUSH1 0x4 PUSH2 0x12B6 JUMP JUMPDEST PUSH2 0xCD0 JUMP JUMPDEST PUSH2 0x183 PUSH1 0x5 DUP2 JUMP JUMPDEST PUSH1 0x0 SLOAD PUSH1 0x1 PUSH1 0x1 PUSH1 0xA0 SHL SUB AND PUSH2 0x1A9 JUMP JUMPDEST PUSH1 0x2 SLOAD PUSH2 0x1A9 SWAP1 PUSH1 0x1 PUSH1 0x1 PUSH1 0xA0 SHL SUB AND DUP2 JUMP JUMPDEST PUSH2 0x183 PUSH1 0x5 SLOAD DUP2 JUMP JUMPDEST PUSH2 0x183 PUSH4 0x63AEFCF0 DUP2 JUMP JUMPDEST PUSH2 0x2FA PUSH2 0x2A4 CALLDATASIZE PUSH1 0x4 PUSH2 0x1245 JUMP JUMPDEST PUSH1 0x7 PUSH1 0x20 DUP2 SWAP1 MSTORE PUSH1 0x0 SWAP2 DUP3 MSTORE PUSH1 0x40 SWAP1 SWAP2 KECCAK256 DUP1 SLOAD PUSH1 0x1 DUP3 ADD SLOAD PUSH1 0x2 DUP4 ADD SLOAD PUSH1 0x3 DUP5 ADD SLOAD PUSH1 0x4 DUP6 ADD SLOAD PUSH1 0x5 DUP7 ADD SLOAD PUSH1 0x6 DUP8 ADD SLOAD SWAP7 SWAP1 SWAP8 ADD SLOAD SWAP5 SWAP7 SWAP4 SWAP6 SWAP3 SWAP5 SWAP2 SWAP4 SWAP1 SWAP3 PUSH2 0xFFFF DUP3 AND SWAP3 PUSH1 0xFF PUSH3 0x10000 SWAP1 SWAP4 DIV DUP4 AND SWAP3 AND DUP10 JUMP JUMPDEST PUSH1 0x40 DUP1 MLOAD SWAP10 DUP11 MSTORE PUSH1 0x20 DUP11 ADD SWAP9 SWAP1 SWAP9 MSTORE SWAP7 DUP9 ADD SWAP6 SWAP1 SWAP6 MSTORE PUSH1 0x60 DUP8 ADD SWAP4 SWAP1 SWAP4 MSTORE PUSH1 0x80 DUP7 ADD SWAP2 SWAP1 SWAP2 MSTORE PUSH2 0xFFFF AND PUSH1 0xA0 DUP6 ADD MSTORE ISZERO ISZERO PUSH1 0xC0 DUP5 ADD MSTORE PUSH1 0xE0 DUP4 ADD MSTORE ISZERO ISZERO PUSH2 0x100 DUP3 ADD MSTORE PUSH2 0x120 ADD PUSH2 0x18D JUMP JUMPDEST PUSH2 0x183 PUSH3 0x51BD00 DUP2 JUMP JUMPDEST PUSH2 0x1FB PUSH2 0x35E CALLDATASIZE PUSH1 0x4 PUSH2 0x1245 JUMP JUMPDEST PUSH2 0xDF1 JUMP JUMPDEST PUSH1 0x1 SLOAD PUSH2 0x1A9 SWAP1 PUSH1 0x1 PUSH1 0x1 PUSH1 0xA0 SHL SUB AND DUP2 JUMP JUMPDEST PUSH2 0x1D8 PUSH2 0xEFF JUMP JUMPDEST PUSH2 0x183 PUSH9 0x48431755769BB40000 DUP2 JUMP JUMPDEST PUSH2 0x183 PUSH11 0x31A17E847807B1BC000000 DUP2 JUMP JUMPDEST PUSH2 0x1FB PUSH2 0x3AE CALLDATASIZE PUSH1 0x4 PUSH2 0x1245 JUMP JUMPDEST PUSH2 0xF74 JUMP JUMPDEST PUSH2 0x183 PUSH1 0x64 DUP2 JUMP JUMPDEST PUSH1 0x8 DUP2 DUP2 SLOAD DUP2 LT PUSH2 0x3CB JUMPI PUSH1 0x0 DUP1 REVERT JUMPDEST PUSH1 0x0 SWAP2 DUP3 MSTORE PUSH1 0x20 SWAP1 SWAP2 KECCAK256 ADD SLOAD PUSH1 0x1 PUSH1 0x1 PUSH1 0xA0 SHL SUB AND SWAP1 POP DUP2 JUMP JUMPDEST DUP1 PUSH9 0x48431755769BB40000 DUP2 LT ISZERO PUSH2 0x444 JUMPI PUSH1 0x40 MLOAD PUSH3 0x461BCD PUSH1 0xE5 SHL DUP2 MSTORE PUSH1 0x20 PUSH1 0x4 DUP3 ADD MSTORE PUSH1 0x1F PUSH1 0x24 DUP3 ADD MSTORE PUSH32 0x4C6F776572207468616E206D696E20707572636861736520616D6F756E742100 PUSH1 0x44 DUP3 ADD MSTORE PUSH1 0x64 ADD JUMPDEST PUSH1 0x40 MLOAD DUP1 SWAP2 SUB SWAP1 REVERT JUMPDEST PUSH1 0x0 DUP2 PUSH1 0x5 SLOAD PUSH2 0x454 SWAP2 SWAP1 PUSH2 0x13B6 JUMP JUMPDEST LT ISZERO PUSH2 0x49C JUMPI PUSH1 0x40 MLOAD PUSH3 0x461BCD PUSH1 0xE5 SHL DUP2 MSTORE PUSH1 0x20 PUSH1 0x4 DUP3 ADD MSTORE PUSH1 0x17 PUSH1 0x24 DUP3 ADD MSTORE PUSH23 0x4E6F7420656E6F75676820746F6B656E73206C65667421 PUSH1 0x48 SHL PUSH1 0x44 DUP3 ADD MSTORE PUSH1 0x64 ADD PUSH2 0x43B JUMP JUMPDEST PUSH4 0x637B9270 TIMESTAMP LT DUP1 PUSH2 0x4B1 JUMPI POP PUSH4 0x63AEFCF0 TIMESTAMP GT JUMPDEST DUP1 PUSH2 0x4BC JUMPI POP PUSH1 0x5 SLOAD ISZERO JUMPDEST ISZERO PUSH2 0x50A JUMPI PUSH1 0x6 DUP1 SLOAD PUSH1 0xFF NOT AND SWAP1 SSTORE PUSH1 0x40 MLOAD PUSH3 0x461BCD PUSH1 0xE5 SHL DUP2 MSTORE PUSH1 0x20 PUSH1 0x4 DUP3 ADD MSTORE PUSH1 0x14 PUSH1 0x24 DUP3 ADD MSTORE PUSH20 0x526F756E64206973206E6F742061637469766521 PUSH1 0x60 SHL PUSH1 0x44 DUP3 ADD MSTORE PUSH1 0x64 ADD PUSH2 0x43B JUMP JUMPDEST PUSH1 0x6 DUP1 SLOAD PUSH1 0xFF NOT AND PUSH1 0x1 OR SWAP1 SSTORE CALLER PUSH1 0x0 PUSH1 0x64 PUSH2 0x528 PUSH2 0x2710 DUP7 PUSH2 0x1354 JUMP JUMPDEST PUSH2 0x532 SWAP2 SWAP1 PUSH2 0x1374 JUMP JUMPDEST PUSH1 0x4 DUP1 SLOAD PUSH1 0x40 MLOAD PUSH4 0x6EB1769F PUSH1 0xE1 SHL DUP2 MSTORE CALLER SWAP3 DUP2 ADD SWAP3 SWAP1 SWAP3 MSTORE ADDRESS PUSH1 0x24 DUP4 ADD MSTORE SWAP2 SWAP3 POP DUP6 SWAP2 PUSH1 0x1 PUSH1 0x1 PUSH1 0xA0 SHL SUB AND SWAP1 PUSH4 0xDD62ED3E SWAP1 PUSH1 0x44 ADD PUSH1 0x20 PUSH1 0x40 MLOAD DUP1 DUP4 SUB DUP2 DUP7 DUP1 EXTCODESIZE ISZERO DUP1 ISZERO PUSH2 0x581 JUMPI PUSH1 0x0 DUP1 REVERT JUMPDEST POP GAS STATICCALL ISZERO DUP1 ISZERO PUSH2 0x595 JUMPI RETURNDATASIZE PUSH1 0x0 DUP1 RETURNDATACOPY RETURNDATASIZE PUSH1 0x0 REVERT JUMPDEST POP POP POP POP PUSH1 0x40 MLOAD RETURNDATASIZE PUSH1 0x1F NOT PUSH1 0x1F DUP3 ADD AND DUP3 ADD DUP1 PUSH1 0x40 MSTORE POP DUP2 ADD SWAP1 PUSH2 0x5B9 SWAP2 SWAP1 PUSH2 0x129E JUMP JUMPDEST LT ISZERO PUSH2 0x61E JUMPI PUSH1 0x40 MLOAD PUSH3 0x461BCD PUSH1 0xE5 SHL DUP2 MSTORE PUSH1 0x20 PUSH1 0x4 DUP3 ADD MSTORE PUSH1 0x2E PUSH1 0x24 DUP3 ADD MSTORE PUSH32 0x4E6F7420656E6F75676820616C6C6F77616E63652C20617070726F766520796F PUSH1 0x44 DUP3 ADD MSTORE PUSH14 0x7572205553445420666972737421 PUSH1 0x90 SHL PUSH1 0x64 DUP3 ADD MSTORE PUSH1 0x84 ADD PUSH2 0x43B JUMP JUMPDEST PUSH1 0x4 DUP1 SLOAD PUSH1 0x40 MLOAD PUSH4 0x70A08231 PUSH1 0xE0 SHL DUP2 MSTORE PUSH1 0x1 PUSH1 0x1 PUSH1 0xA0 SHL SUB DUP6 DUP2 AND SWAP4 DUP3 ADD SWAP4 SWAP1 SWAP4 MSTORE DUP4 SWAP3 SWAP1 SWAP2 AND SWAP1 PUSH4 0x70A08231 SWAP1 PUSH1 0x24 ADD PUSH1 0x20 PUSH1 0x40 MLOAD DUP1 DUP4 SUB DUP2 DUP7 DUP1 EXTCODESIZE ISZERO DUP1 ISZERO PUSH2 0x668 JUMPI PUSH1 0x0 DUP1 REVERT JUMPDEST POP GAS STATICCALL ISZERO DUP1 ISZERO PUSH2 0x67C JUMPI RETURNDATASIZE PUSH1 0x0 DUP1 RETURNDATACOPY RETURNDATASIZE PUSH1 0x0 REVERT JUMPDEST POP POP POP POP PUSH1 0x40 MLOAD RETURNDATASIZE PUSH1 0x1F NOT PUSH1 0x1F DUP3 ADD AND DUP3 ADD DUP1 PUSH1 0x40 MSTORE POP DUP2 ADD SWAP1 PUSH2 0x6A0 SWAP2 SWAP1 PUSH2 0x129E JUMP JUMPDEST LT ISZERO PUSH2 0x6EE JUMPI PUSH1 0x40 MLOAD PUSH3 0x461BCD PUSH1 0xE5 SHL DUP2 MSTORE PUSH1 0x20 PUSH1 0x4 DUP3 ADD MSTORE PUSH1 0x17 PUSH1 0x24 DUP3 ADD MSTORE PUSH32 0x4E6F7420656E6F756768205553445420746F6B656E7321000000000000000000 PUSH1 0x44 DUP3 ADD MSTORE PUSH1 0x64 ADD PUSH2 0x43B JUMP JUMPDEST PUSH1 0x4 DUP1 SLOAD PUSH1 0x40 MLOAD PUSH4 0x23B872DD PUSH1 0xE0 SHL DUP2 MSTORE PUSH1 0x1 PUSH1 0x1 PUSH1 0xA0 SHL SUB DUP6 DUP2 AND SWAP4 DUP3 ADD SWAP4 SWAP1 SWAP4 MSTORE ADDRESS PUSH1 0x24 DUP3 ADD MSTORE PUSH1 0x44 DUP2 ADD DUP5 SWAP1 MSTORE SWAP2 AND SWAP1 PUSH4 0x23B872DD SWAP1 PUSH1 0x64 ADD PUSH1 0x20 PUSH1 0x40 MLOAD DUP1 DUP4 SUB DUP2 PUSH1 0x0 DUP8 DUP1 EXTCODESIZE ISZERO DUP1 ISZERO PUSH2 0x744 JUMPI PUSH1 0x0 DUP1 REVERT JUMPDEST POP GAS CALL ISZERO DUP1 ISZERO PUSH2 0x758 JUMPI RETURNDATASIZE PUSH1 0x0 DUP1 RETURNDATACOPY RETURNDATASIZE PUSH1 0x0 REVERT JUMPDEST POP POP POP POP PUSH1 0x40 MLOAD RETURNDATASIZE PUSH1 0x1F NOT PUSH1 0x1F DUP3 ADD AND DUP3 ADD DUP1 PUSH1 0x40 MSTORE POP DUP2 ADD SWAP1 PUSH2 0x77C SWAP2 SWAP1 PUSH2 0x1266 JUMP JUMPDEST ISZERO ISZERO PUSH1 0x1 EQ PUSH2 0x7CD JUMPI PUSH1 0x40 MLOAD PUSH3 0x461BCD PUSH1 0xE5 SHL DUP2 MSTORE PUSH1 0x20 PUSH1 0x4 DUP3 ADD MSTORE PUSH1 0x18 PUSH1 0x24 DUP3 ADD MSTORE PUSH32 0x4661696C656420746F207472616E736665722055534454210000000000000000 PUSH1 0x44 DUP3 ADD MSTORE PUSH1 0x64 ADD PUSH2 0x43B JUMP JUMPDEST PUSH2 0x7D7 DUP5 CALLER PUSH2 0x100F JUMP JUMPDEST PUSH1 0x40 MLOAD DUP5 DUP2 MSTORE CALLER SWAP1 PUSH32 0x55C18555197C6574627CF460C66073D10AA05D412468800B7B71FEEAF82EA92D SWAP1 PUSH1 0x20 ADD PUSH1 0x40 MLOAD DUP1 SWAP2 SUB SWAP1 LOG2 POP POP POP POP JUMP JUMPDEST CALLER PUSH1 0x0 SWAP1 DUP2 MSTORE PUSH1 0x7 PUSH1 0x20 MSTORE PUSH1 0x40 SWAP1 KECCAK256 PUSH1 0x3 ADD SLOAD PUSH2 0x865 JUMPI PUSH1 0x40 MLOAD PUSH3 0x461BCD PUSH1 0xE5 SHL DUP2 MSTORE PUSH1 0x20 PUSH1 0x4 DUP3 ADD MSTORE PUSH1 0x11 PUSH1 0x24 DUP3 ADD MSTORE PUSH17 0x4E6F7468696E6720746F20636C61696D21 PUSH1 0x78 SHL PUSH1 0x44 DUP3 ADD MSTORE PUSH1 0x64 ADD PUSH2 0x43B JUMP JUMPDEST CALLER PUSH1 0x0 SWAP1 DUP2 MSTORE PUSH1 0x7 PUSH1 0x20 MSTORE PUSH1 0x40 SWAP1 KECCAK256 PUSH1 0x4 ADD SLOAD TIMESTAMP LT ISZERO PUSH2 0x8C7 JUMPI PUSH1 0x40 MLOAD PUSH3 0x461BCD PUSH1 0xE5 SHL DUP2 MSTORE PUSH1 0x20 PUSH1 0x4 DUP3 ADD MSTORE PUSH1 0x18 PUSH1 0x24 DUP3 ADD MSTORE PUSH32 0x546F6B656E7320617265207374696C6C206C6F636B6564210000000000000000 PUSH1 0x44 DUP3 ADD MSTORE PUSH1 0x64 ADD PUSH2 0x43B JUMP JUMPDEST CALLER PUSH1 0x0 DUP2 DUP2 MSTORE PUSH1 0x7 PUSH1 0x20 MSTORE PUSH1 0x40 DUP2 KECCAK256 PUSH1 0x5 DUP2 ADD DUP1 SLOAD PUSH3 0xFF0000 NOT AND SWAP1 DUP2 SWAP1 SSTORE SWAP1 SWAP2 SWAP1 PUSH3 0x10000 SWAP1 DIV PUSH1 0xFF AND ISZERO PUSH2 0x934 JUMPI PUSH1 0x40 MLOAD PUSH3 0x461BCD PUSH1 0xE5 SHL DUP2 MSTORE PUSH1 0x20 PUSH1 0x4 DUP3 ADD MSTORE PUSH1 0x12 PUSH1 0x24 DUP3 ADD MSTORE PUSH18 0x546F6B656E7320617265206C6F636B656421 PUSH1 0x70 SHL PUSH1 0x44 DUP3 ADD MSTORE PUSH1 0x64 ADD PUSH2 0x43B JUMP JUMPDEST PUSH2 0x940 PUSH1 0x1 PUSH1 0xC PUSH2 0x13CD JUMP JUMPDEST PUSH1 0x5 DUP4 ADD SLOAD PUSH1 0xFF SWAP2 SWAP1 SWAP2 AND PUSH2 0xFFFF SWAP1 SWAP2 AND LT ISZERO PUSH2 0x97D JUMPI PUSH2 0x316 PUSH2 0x2710 DUP4 PUSH1 0x1 ADD SLOAD PUSH2 0x96C SWAP2 SWAP1 PUSH2 0x1354 JUMP JUMPDEST PUSH2 0x976 SWAP2 SWAP1 PUSH2 0x1374 JUMP JUMPDEST SWAP1 POP PUSH2 0x9F1 JUMP JUMPDEST PUSH2 0x989 PUSH1 0x1 PUSH1 0xC PUSH2 0x13CD JUMP JUMPDEST PUSH1 0x5 DUP4 ADD SLOAD PUSH2 0xFFFF AND PUSH1 0xFF SWAP2 SWAP1 SWAP2 AND EQ ISZERO PUSH2 0x9A9 JUMPI POP PUSH1 0x3 DUP2 ADD SLOAD PUSH2 0x9F1 JUMP JUMPDEST PUSH1 0x40 MLOAD PUSH3 0x461BCD PUSH1 0xE5 SHL DUP2 MSTORE PUSH1 0x20 PUSH1 0x4 DUP3 ADD MSTORE PUSH1 0x1E PUSH1 0x24 DUP3 ADD MSTORE PUSH32 0x45766572797468696E6720697320616C726561647920636C61696D6564210000 PUSH1 0x44 DUP3 ADD MSTORE PUSH1 0x64 ADD PUSH2 0x43B JUMP JUMPDEST PUSH1 0x5 DUP3 ADD DUP1 SLOAD PUSH3 0xFF0000 NOT AND PUSH3 0x10000 OR SWAP1 SSTORE PUSH1 0x3 SLOAD PUSH1 0x40 MLOAD PUSH4 0x40C10F19 PUSH1 0xE0 SHL DUP2 MSTORE PUSH1 0x1 PUSH1 0x1 PUSH1 0xA0 SHL SUB DUP6 DUP2 AND PUSH1 0x4 DUP4 ADD MSTORE PUSH1 0x24 DUP3 ADD DUP5 SWAP1 MSTORE SWAP1 SWAP2 AND SWAP1 PUSH4 0x40C10F19 SWAP1 PUSH1 0x44 ADD PUSH1 0x0 PUSH1 0x40 MLOAD DUP1 DUP4 SUB DUP2 PUSH1 0x0 DUP8 DUP1 EXTCODESIZE ISZERO DUP1 ISZERO PUSH2 0xA52 JUMPI PUSH1 0x0 DUP1 REVERT JUMPDEST POP GAS CALL ISZERO DUP1 ISZERO PUSH2 0xA66 JUMPI RETURNDATASIZE PUSH1 0x0 DUP1 RETURNDATACOPY RETURNDATASIZE PUSH1 0x0 REVERT JUMPDEST POP POP POP POP DUP1 DUP3 PUSH1 0x2 ADD PUSH1 0x0 DUP3 DUP3 SLOAD PUSH2 0xA7E SWAP2 SWAP1 PUSH2 0x133C JUMP JUMPDEST SWAP3 POP POP DUP2 SWAP1 SSTORE POP DUP1 DUP3 PUSH1 0x3 ADD PUSH1 0x0 DUP3 DUP3 SLOAD PUSH2 0xA99 SWAP2 SWAP1 PUSH2 0x13B6 JUMP JUMPDEST SWAP3 POP POP DUP2 SWAP1 SSTORE POP PUSH3 0x278D00 DUP3 PUSH1 0x4 ADD PUSH1 0x0 DUP3 DUP3 SLOAD PUSH2 0xAB7 SWAP2 SWAP1 PUSH2 0x133C JUMP JUMPDEST SWAP1 SWAP2 SSTORE POP POP PUSH1 0x5 DUP3 ADD DUP1 SLOAD PUSH1 0x1 SWAP2 SWAP1 PUSH1 0x0 SWAP1 PUSH2 0xAD8 SWAP1 DUP5 SWAP1 PUSH2 0xFFFF AND PUSH2 0x1316 JUMP JUMPDEST DUP3 SLOAD PUSH2 0x100 SWAP3 SWAP1 SWAP3 EXP PUSH2 0xFFFF DUP2 DUP2 MUL NOT SWAP1 SWAP4 AND SWAP2 DUP4 AND MUL OR SWAP1 SWAP2 SSTORE PUSH1 0x5 DUP5 ADD SLOAD PUSH1 0x1 PUSH1 0x1 PUSH1 0xA0 SHL SUB DUP7 AND SWAP3 POP PUSH32 0x886CB285F2E8C3531FC0EF6A4C365909B5F707EA98B34B5FE6D047C208687A4 SWAP2 DUP5 SWAP2 PUSH2 0xB34 SWAP2 AND PUSH1 0xC PUSH2 0x1393 JUMP JUMPDEST PUSH1 0x4 DUP7 ADD SLOAD PUSH1 0x40 DUP1 MLOAD SWAP4 DUP5 MSTORE PUSH2 0xFFFF SWAP1 SWAP3 AND PUSH1 0x20 DUP5 ADD MSTORE SWAP1 DUP3 ADD MSTORE PUSH1 0x60 ADD JUMPDEST PUSH1 0x40 MLOAD DUP1 SWAP2 SUB SWAP1 LOG2 POP POP POP JUMP JUMPDEST PUSH1 0x0 SLOAD PUSH1 0x1 PUSH1 0x1 PUSH1 0xA0 SHL SUB AND CALLER EQ PUSH2 0xB8A JUMPI PUSH1 0x40 MLOAD PUSH3 0x461BCD PUSH1 0xE5 SHL DUP2 MSTORE PUSH1 0x4 ADD PUSH2 0x43B SWAP1 PUSH2 0x12E1 JUMP JUMPDEST PUSH2 0xB94 PUSH1 0x0 PUSH2 0x11D9 JUMP JUMPDEST JUMP JUMPDEST PUSH1 0x0 SLOAD PUSH1 0x1 PUSH1 0x1 PUSH1 0xA0 SHL SUB AND CALLER EQ PUSH2 0xBC0 JUMPI PUSH1 0x40 MLOAD PUSH3 0x461BCD PUSH1 0xE5 SHL DUP2 MSTORE PUSH1 0x4 ADD PUSH2 0x43B SWAP1 PUSH2 0x12E1 JUMP JUMPDEST PUSH1 0x4 DUP1 SLOAD PUSH1 0x40 MLOAD PUSH4 0x70A08231 PUSH1 0xE0 SHL DUP2 MSTORE ADDRESS SWAP3 DUP2 ADD SWAP3 SWAP1 SWAP3 MSTORE PUSH1 0x0 SWAP2 PUSH1 0x1 PUSH1 0x1 PUSH1 0xA0 SHL SUB SWAP1 SWAP2 AND SWAP1 PUSH4 0x70A08231 SWAP1 PUSH1 0x24 ADD PUSH1 0x20 PUSH1 0x40 MLOAD DUP1 DUP4 SUB DUP2 DUP7 DUP1 EXTCODESIZE ISZERO DUP1 ISZERO PUSH2 0xC09 JUMPI PUSH1 0x0 DUP1 REVERT JUMPDEST POP GAS STATICCALL ISZERO DUP1 ISZERO PUSH2 0xC1D JUMPI RETURNDATASIZE PUSH1 0x0 DUP1 RETURNDATACOPY RETURNDATASIZE PUSH1 0x0 REVERT JUMPDEST POP POP POP POP PUSH1 0x40 MLOAD RETURNDATASIZE PUSH1 0x1F NOT PUSH1 0x1F DUP3 ADD AND DUP3 ADD DUP1 PUSH1 0x40 MSTORE POP DUP2 ADD SWAP1 PUSH2 0xC41 SWAP2 SWAP1 PUSH2 0x129E JUMP JUMPDEST PUSH1 0x4 DUP1 SLOAD PUSH1 0x40 MLOAD PUSH4 0xA9059CBB PUSH1 0xE0 SHL DUP2 MSTORE PUSH1 0x1 PUSH1 0x1 PUSH1 0xA0 SHL SUB DUP7 DUP2 AND SWAP4 DUP3 ADD SWAP4 SWAP1 SWAP4 MSTORE PUSH1 0x24 DUP2 ADD DUP5 SWAP1 MSTORE SWAP3 SWAP4 POP AND SWAP1 PUSH4 0xA9059CBB SWAP1 PUSH1 0x44 ADD PUSH1 0x20 PUSH1 0x40 MLOAD DUP1 DUP4 SUB DUP2 PUSH1 0x0 DUP8 DUP1 EXTCODESIZE ISZERO DUP1 ISZERO PUSH2 0xC93 JUMPI PUSH1 0x0 DUP1 REVERT JUMPDEST POP GAS CALL ISZERO DUP1 ISZERO PUSH2 0xCA7 JUMPI RETURNDATASIZE PUSH1 0x0 DUP1 RETURNDATACOPY RETURNDATASIZE PUSH1 0x0 REVERT JUMPDEST POP POP POP POP PUSH1 0x40 MLOAD RETURNDATASIZE PUSH1 0x1F NOT PUSH1 0x1F DUP3 ADD AND DUP3 ADD DUP1 PUSH1 0x40 MSTORE POP DUP2 ADD SWAP1 PUSH2 0xCCB SWAP2 SWAP1 PUSH2 0x1266 JUMP JUMPDEST POP POP POP JUMP JUMPDEST DUP2 PUSH9 0x48431755769BB40000 DUP2 LT ISZERO PUSH2 0xD2A JUMPI PUSH1 0x40 MLOAD PUSH3 0x461BCD PUSH1 0xE5 SHL DUP2 MSTORE PUSH1 0x20 PUSH1 0x4 DUP3 ADD MSTORE PUSH1 0x1F PUSH1 0x24 DUP3 ADD MSTORE PUSH32 0x4C6F776572207468616E206D696E20707572636861736520616D6F756E742100 PUSH1 0x44 DUP3 ADD MSTORE PUSH1 0x64 ADD PUSH2 0x43B JUMP JUMPDEST PUSH1 0x0 DUP2 PUSH1 0x5 SLOAD PUSH2 0xD3A SWAP2 SWAP1 PUSH2 0x13B6 JUMP JUMPDEST LT ISZERO PUSH2 0xD82 JUMPI PUSH1 0x40 MLOAD PUSH3 0x461BCD PUSH1 0xE5 SHL DUP2 MSTORE PUSH1 0x20 PUSH1 0x4 DUP3 ADD MSTORE PUSH1 0x17 PUSH1 0x24 DUP3 ADD MSTORE PUSH23 0x4E6F7420656E6F75676820746F6B656E73206C65667421 PUSH1 0x48 SHL PUSH1 0x44 DUP3 ADD MSTORE PUSH1 0x64 ADD PUSH2 0x43B JUMP JUMPDEST PUSH1 0x0 SLOAD PUSH1 0x1 PUSH1 0x1 PUSH1 0xA0 SHL SUB AND CALLER EQ PUSH2 0xDAC JUMPI PUSH1 0x40 MLOAD PUSH3 0x461BCD PUSH1 0xE5 SHL DUP2 MSTORE PUSH1 0x4 ADD PUSH2 0x43B SWAP1 PUSH2 0x12E1 JUMP JUMPDEST PUSH2 0xDB6 DUP4 DUP4 PUSH2 0x100F JUMP JUMPDEST DUP2 PUSH1 0x1 PUSH1 0x1 PUSH1 0xA0 SHL SUB AND PUSH32 0x55C18555197C6574627CF460C66073D10AA05D412468800B7B71FEEAF82EA92D DUP5 PUSH1 0x40 MLOAD PUSH2 0xB53 SWAP2 DUP2 MSTORE PUSH1 0x20 ADD SWAP1 JUMP JUMPDEST PUSH1 0x0 SLOAD PUSH1 0x1 PUSH1 0x1 PUSH1 0xA0 SHL SUB AND CALLER EQ PUSH2 0xE1B JUMPI PUSH1 0x40 MLOAD PUSH3 0x461BCD PUSH1 0xE5 SHL DUP2 MSTORE PUSH1 0x4 ADD PUSH2 0x43B SWAP1 PUSH2 0x12E1 JUMP JUMPDEST PUSH4 0x63AEFCF0 TIMESTAMP GT ISZERO DUP1 ISZERO PUSH2 0xE31 JUMPI POP PUSH1 0x0 PUSH1 0x5 SLOAD GT JUMPDEST ISZERO PUSH2 0xE84 JUMPI PUSH1 0x6 DUP1 SLOAD PUSH1 0xFF NOT AND PUSH1 0x1 OR SWAP1 SSTORE PUSH1 0x40 MLOAD PUSH3 0x461BCD PUSH1 0xE5 SHL DUP2 MSTORE PUSH1 0x20 PUSH1 0x4 DUP3 ADD MSTORE PUSH1 0x16 PUSH1 0x24 DUP3 ADD MSTORE PUSH22 0x526F756E64206973207374696C6C2061637469766521 PUSH1 0x50 SHL PUSH1 0x44 DUP3 ADD MSTORE PUSH1 0x64 ADD PUSH2 0x43B JUMP JUMPDEST PUSH1 0x6 DUP1 SLOAD PUSH1 0xFF NOT AND SWAP1 SSTORE PUSH1 0x3 SLOAD PUSH1 0x5 SLOAD PUSH1 0x40 MLOAD PUSH4 0x40C10F19 PUSH1 0xE0 SHL DUP2 MSTORE PUSH1 0x1 PUSH1 0x1 PUSH1 0xA0 SHL SUB DUP5 DUP2 AND PUSH1 0x4 DUP4 ADD MSTORE PUSH1 0x24 DUP3 ADD SWAP3 SWAP1 SWAP3 MSTORE SWAP2 AND SWAP1 PUSH4 0x40C10F19 SWAP1 PUSH1 0x44 ADD PUSH1 0x0 PUSH1 0x40 MLOAD DUP1 DUP4 SUB DUP2 PUSH1 0x0 DUP8 DUP1 EXTCODESIZE ISZERO DUP1 ISZERO PUSH2 0xEDF JUMPI PUSH1 0x0 DUP1 REVERT JUMPDEST POP GAS CALL ISZERO DUP1 ISZERO PUSH2 0xEF3 JUMPI RETURNDATASIZE PUSH1 0x0 DUP1 RETURNDATACOPY RETURNDATASIZE PUSH1 0x0 REVERT JUMPDEST POP POP PUSH1 0x0 PUSH1 0x5 SSTORE POP POP POP JUMP JUMPDEST PUSH1 0x0 PUSH4 0x637B9270 TIMESTAMP GT ISZERO DUP1 PUSH2 0xF18 JUMPI POP PUSH4 0x63AEFCF0 TIMESTAMP LT ISZERO JUMPDEST DUP1 PUSH2 0xF23 JUMPI POP PUSH1 0x5 SLOAD ISZERO JUMPDEST ISZERO PUSH2 0xF33 JUMPI PUSH1 0x6 DUP1 SLOAD PUSH1 0xFF NOT AND SWAP1 SSTORE JUMPDEST PUSH4 0x637B9270 TIMESTAMP GT DUP1 ISZERO PUSH2 0xF49 JUMPI POP PUSH4 0x63AEFCF0 TIMESTAMP LT JUMPDEST DUP1 ISZERO PUSH2 0xF57 JUMPI POP PUSH1 0x0 PUSH1 0x5 SLOAD GT JUMPDEST ISZERO PUSH2 0xF6A JUMPI PUSH1 0x6 DUP1 SLOAD PUSH1 0xFF NOT AND PUSH1 0x1 OR SWAP1 SSTORE JUMPDEST POP PUSH1 0x6 SLOAD PUSH1 0xFF AND SWAP1 JUMP JUMPDEST PUSH1 0x0 SLOAD PUSH1 0x1 PUSH1 0x1 PUSH1 0xA0 SHL SUB AND CALLER EQ PUSH2 0xF9E JUMPI PUSH1 0x40 MLOAD PUSH3 0x461BCD PUSH1 0xE5 SHL DUP2 MSTORE PUSH1 0x4 ADD PUSH2 0x43B SWAP1 PUSH2 0x12E1 JUMP JUMPDEST PUSH1 0x1 PUSH1 0x1 PUSH1 0xA0 SHL SUB DUP2 AND PUSH2 0x1003 JUMPI PUSH1 0x40 MLOAD PUSH3 0x461BCD PUSH1 0xE5 SHL DUP2 MSTORE PUSH1 0x20 PUSH1 0x4 DUP3 ADD MSTORE PUSH1 0x26 PUSH1 0x24 DUP3 ADD MSTORE PUSH32 0x4F776E61626C653A206E6577206F776E657220697320746865207A65726F2061 PUSH1 0x44 DUP3 ADD MSTORE PUSH6 0x646472657373 PUSH1 0xD0 SHL PUSH1 0x64 DUP3 ADD MSTORE PUSH1 0x84 ADD PUSH2 0x43B JUMP JUMPDEST PUSH2 0x100C DUP2 PUSH2 0x11D9 JUMP JUMPDEST POP JUMP JUMPDEST PUSH1 0x1 PUSH1 0x1 PUSH1 0xA0 SHL SUB DUP2 AND PUSH1 0x0 SWAP1 DUP2 MSTORE PUSH1 0x7 PUSH1 0x20 MSTORE PUSH1 0x40 DUP2 KECCAK256 SWAP1 TIMESTAMP SWAP1 PUSH1 0x5 PUSH2 0x1037 PUSH1 0x64 DUP8 PUSH2 0x1354 JUMP JUMPDEST PUSH2 0x1041 SWAP2 SWAP1 PUSH2 0x1374 JUMP JUMPDEST PUSH1 0x3 SLOAD PUSH1 0x40 MLOAD PUSH4 0x40C10F19 PUSH1 0xE0 SHL DUP2 MSTORE PUSH1 0x1 PUSH1 0x1 PUSH1 0xA0 SHL SUB DUP8 DUP2 AND PUSH1 0x4 DUP4 ADD MSTORE PUSH1 0x24 DUP3 ADD DUP5 SWAP1 MSTORE SWAP3 SWAP4 POP SWAP2 AND SWAP1 PUSH4 0x40C10F19 SWAP1 PUSH1 0x44 ADD PUSH1 0x0 PUSH1 0x40 MLOAD DUP1 DUP4 SUB DUP2 PUSH1 0x0 DUP8 DUP1 EXTCODESIZE ISZERO DUP1 ISZERO PUSH2 0x1091 JUMPI PUSH1 0x0 DUP1 REVERT JUMPDEST POP GAS CALL ISZERO DUP1 ISZERO PUSH2 0x10A5 JUMPI RETURNDATASIZE PUSH1 0x0 DUP1 RETURNDATACOPY RETURNDATASIZE PUSH1 0x0 REVERT JUMPDEST POP POP POP POP DUP1 DUP4 PUSH1 0x6 ADD PUSH1 0x0 DUP3 DUP3 SLOAD PUSH2 0x10BD SWAP2 SWAP1 PUSH2 0x133C JUMP JUMPDEST SWAP3 POP POP DUP2 SWAP1 SSTORE POP DUP1 DUP4 PUSH1 0x2 ADD PUSH1 0x0 DUP3 DUP3 SLOAD PUSH2 0x10D8 SWAP2 SWAP1 PUSH2 0x133C JUMP JUMPDEST SWAP1 SWAP2 SSTORE POP PUSH2 0x10E8 SWAP1 POP DUP2 DUP7 PUSH2 0x13B6 JUMP JUMPDEST DUP4 PUSH1 0x3 ADD PUSH1 0x0 DUP3 DUP3 SLOAD PUSH2 0x10FB SWAP2 SWAP1 PUSH2 0x133C JUMP JUMPDEST SWAP1 SWAP2 SSTORE POP POP PUSH1 0x1 DUP4 ADD DUP6 SWAP1 SSTORE PUSH1 0x5 DUP4 ADD DUP1 SLOAD PUSH2 0xFFFF NOT AND SWAP1 SSTORE PUSH1 0x7 DUP4 ADD SLOAD PUSH1 0xFF AND PUSH2 0x117C JUMPI PUSH1 0x8 DUP1 SLOAD PUSH1 0x1 DUP1 DUP3 ADD DUP4 SSTORE PUSH1 0x0 SWAP3 SWAP1 SWAP3 MSTORE PUSH32 0xF3F7A9FE364FAAB93B216DA50A3214154F22A0A2B415B23A84C8169E8B636EE3 ADD DUP1 SLOAD PUSH1 0x1 PUSH1 0x1 PUSH1 0xA0 SHL SUB NOT AND PUSH1 0x1 PUSH1 0x1 PUSH1 0xA0 SHL SUB DUP8 AND OR SWAP1 SSTORE PUSH1 0x7 DUP5 ADD DUP1 SLOAD PUSH1 0xFF NOT AND SWAP1 SWAP2 OR SWAP1 SSTORE JUMPDEST DUP5 DUP4 PUSH1 0x0 ADD PUSH1 0x0 DUP3 DUP3 SLOAD PUSH2 0x1190 SWAP2 SWAP1 PUSH2 0x133C JUMP JUMPDEST SWAP3 POP POP DUP2 SWAP1 SSTORE POP DUP5 PUSH1 0x5 PUSH1 0x0 DUP3 DUP3 SLOAD PUSH2 0x11A9 SWAP2 SWAP1 PUSH2 0x13B6 JUMP JUMPDEST SWAP1 SWAP2 SSTORE POP PUSH2 0x11BC SWAP1 POP PUSH3 0x51BD00 DUP4 PUSH2 0x133C JUMP JUMPDEST PUSH1 0x4 DUP5 ADD SSTORE POP POP PUSH1 0x5 ADD DUP1 SLOAD PUSH3 0xFF0000 NOT AND PUSH3 0x10000 OR SWAP1 SSTORE POP POP JUMP JUMPDEST PUSH1 0x0 DUP1 SLOAD PUSH1 0x1 PUSH1 0x1 PUSH1 0xA0 SHL SUB DUP4 DUP2 AND PUSH1 0x1 PUSH1 0x1 PUSH1 0xA0 SHL SUB NOT DUP4 AND DUP2 OR DUP5 SSTORE PUSH1 0x40 MLOAD SWAP2 SWAP1 SWAP3 AND SWAP3 DUP4 SWAP2 PUSH32 0x8BE0079C531659141344CD1FD0A4F28419497F9722A3DAAFE3B4186F6B6457E0 SWAP2 SWAP1 LOG3 POP POP JUMP JUMPDEST DUP1 CALLDATALOAD PUSH1 0x1 PUSH1 0x1 PUSH1 0xA0 SHL SUB DUP2 AND DUP2 EQ PUSH2 0x1240 JUMPI PUSH1 0x0 DUP1 REVERT JUMPDEST SWAP2 SWAP1 POP JUMP JUMPDEST PUSH1 0x0 PUSH1 0x20 DUP3 DUP5 SUB SLT ISZERO PUSH2 0x1256 JUMPI DUP1 DUP2 REVERT JUMPDEST PUSH2 0x125F DUP3 PUSH2 0x1229 JUMP JUMPDEST SWAP4 SWAP3 POP POP POP JUMP JUMPDEST PUSH1 0x0 PUSH1 0x20 DUP3 DUP5 SUB SLT ISZERO PUSH2 0x1277 JUMPI DUP1 DUP2 REVERT JUMPDEST DUP2 MLOAD DUP1 ISZERO ISZERO DUP2 EQ PUSH2 0x125F JUMPI DUP2 DUP3 REVERT JUMPDEST PUSH1 0x0 PUSH1 0x20 DUP3 DUP5 SUB SLT ISZERO PUSH2 0x1297 JUMPI DUP1 DUP2 REVERT JUMPDEST POP CALLDATALOAD SWAP2 SWAP1 POP JUMP JUMPDEST PUSH1 0x0 PUSH1 0x20 DUP3 DUP5 SUB SLT ISZERO PUSH2 0x12AF JUMPI DUP1 DUP2 REVERT JUMPDEST POP MLOAD SWAP2 SWAP1 POP JUMP JUMPDEST PUSH1 0x0 DUP1 PUSH1 0x40 DUP4 DUP6 SUB SLT ISZERO PUSH2 0x12C8 JUMPI DUP1 DUP2 REVERT JUMPDEST DUP3 CALLDATALOAD SWAP2 POP PUSH2 0x12D8 PUSH1 0x20 DUP5 ADD PUSH2 0x1229 JUMP JUMPDEST SWAP1 POP SWAP3 POP SWAP3 SWAP1 POP JUMP JUMPDEST PUSH1 0x20 DUP1 DUP3 MSTORE DUP2 DUP2 ADD MSTORE PUSH32 0x4F776E61626C653A2063616C6C6572206973206E6F7420746865206F776E6572 PUSH1 0x40 DUP3 ADD MSTORE PUSH1 0x60 ADD SWAP1 JUMP JUMPDEST PUSH1 0x0 PUSH2 0xFFFF DUP1 DUP4 AND DUP2 DUP6 AND DUP1 DUP4 SUB DUP3 GT ISZERO PUSH2 0x1333 JUMPI PUSH2 0x1333 PUSH2 0x13F0 JUMP JUMPDEST ADD SWAP5 SWAP4 POP POP POP POP JUMP JUMPDEST PUSH1 0x0 DUP3 NOT DUP3 GT ISZERO PUSH2 0x134F JUMPI PUSH2 0x134F PUSH2 0x13F0 JUMP JUMPDEST POP ADD SWAP1 JUMP JUMPDEST PUSH1 0x0 DUP3 PUSH2 0x136F JUMPI PUSH4 0x4E487B71 PUSH1 0xE0 SHL DUP2 MSTORE PUSH1 0x12 PUSH1 0x4 MSTORE PUSH1 0x24 DUP2 REVERT JUMPDEST POP DIV SWAP1 JUMP JUMPDEST PUSH1 0x0 DUP2 PUSH1 0x0 NOT DIV DUP4 GT DUP3 ISZERO ISZERO AND ISZERO PUSH2 0x138E JUMPI PUSH2 0x138E PUSH2 0x13F0 JUMP JUMPDEST POP MUL SWAP1 JUMP JUMPDEST PUSH1 0x0 PUSH2 0xFFFF DUP4 DUP2 AND SWAP1 DUP4 AND DUP2 DUP2 LT ISZERO PUSH2 0x13AE JUMPI PUSH2 0x13AE PUSH2 0x13F0 JUMP JUMPDEST SUB SWAP4 SWAP3 POP POP POP JUMP JUMPDEST PUSH1 0x0 DUP3 DUP3 LT ISZERO PUSH2 0x13C8 JUMPI PUSH2 0x13C8 PUSH2 0x13F0 JUMP JUMPDEST POP SUB SWAP1 JUMP JUMPDEST PUSH1 0x0 PUSH1 0xFF DUP3 AND PUSH1 0xFF DUP5 AND DUP1 DUP3 LT ISZERO PUSH2 0x13E7 JUMPI PUSH2 0x13E7 PUSH2 0x13F0 JUMP JUMPDEST SWAP1 SUB SWAP4 SWAP3 POP POP POP JUMP JUMPDEST PUSH4 0x4E487B71 PUSH1 0xE0 SHL PUSH1 0x0 MSTORE PUSH1 0x11 PUSH1 0x4 MSTORE PUSH1 0x24 PUSH1 0x0 REVERT INVALID LOG2 PUSH5 0x6970667358 0x22 SLT KECCAK256 DUP16 0x4B 0xD1 SWAP6 MSTORE PUSH15 0x24A8450316BDB2F463FD3B0532EF1A 0x4B 0x5E 0xB4 MOD LOG1 SHR CALLVALUE ISZERO 0xE5 0x4D 0xC3 PUSH5 0x736F6C6343 STOP ADDMOD DIV STOP CALLER "
        },
        "gasEstimates": {
          "creation": {
            "codeDepositCost": "1036000",
            "executionCost": "infinite",
            "totalCost": "infinite"
          },
          "external": {
            "CLAIM_PERCENT()": "207",
            "CLIFF()": "317",
            "LOCK_PERIOD()": "252",
            "MIN_PURCHASE()": "228",
            "NUM_CLAIMS()": "249",
            "ROUND_END_DATE()": "273",
            "ROUND_FUND()": "250",
            "ROUND_START_DATE()": "208",
            "TGE()": "317",
            "TOKEN_PRICE_USDT()": "294",
            "TokenAddress()": "1104",
            "availableTreasury()": "1051",
            "buyTokens(uint256)": "infinite",
            "checkIfActive()": "44524",
            "claimTokens()": "infinite",
            "icoTokenHolders(uint256)": "2060",
            "isActive()": "1100",
            "issueTokens(uint256,address)": "infinite",
            "owner()": "1054",
            "renounceOwnership()": "23481",
            "transferOwnership(address)": "23697",
            "usdtAddress()": "1082",
            "users(address)": "7256",
            "withdrawRaisedFunds(address)": "infinite",
            "withdrawRemainingToken(address)": "infinite"
          },
          "internal": {
            "_lockAndDistribute(uint256,address)": "infinite"
          }
        },
        "methodIdentifiers": {
          "CLAIM_PERCENT()": "4d7b31d7",
          "CLIFF()": "b87592f2",
          "LOCK_PERIOD()": "1820cabb",
          "MIN_PURCHASE()": "d439390c",
          "NUM_CLAIMS()": "7061b08d",
          "ROUND_END_DATE()": "a5bf1cab",
          "ROUND_FUND()": "e6748c5a",
          "ROUND_START_DATE()": "04cd7ba6",
          "TGE()": "8867596f",
          "TOKEN_PRICE_USDT()": "f8736672",
          "TokenAddress()": "c2cba306",
          "availableTreasury()": "9b5856c9",
          "buyTokens(uint256)": "3610724e",
          "checkIfActive()": "cb628039",
          "claimTokens()": "48c54b9d",
          "icoTokenHolders(uint256)": "15d331d0",
          "isActive()": "22f3e2d4",
          "issueTokens(uint256,address)": "7ad5be88",
          "owner()": "8da5cb5b",
          "renounceOwnership()": "715018a6",
          "transferOwnership(address)": "f2fde38b",
          "usdtAddress()": "9ab4a445",
          "users(address)": "a87430ba",
          "withdrawRaisedFunds(address)": "7805df24",
          "withdrawRemainingToken(address)": "c23be47f"
        }
      },
      "storageLayout": {
        "storage": [
          {
            "astId": 1470,
            "contract": "contracts/Round.sol:Round",
            "label": "_owner",
            "offset": 0,
            "slot": "0",
            "type": "t_address"
          },
          {
            "astId": 82,
            "contract": "contracts/Round.sol:Round",
            "label": "TokenAddress",
            "offset": 0,
            "slot": "1",
            "type": "t_address"
          },
          {
            "astId": 84,
            "contract": "contracts/Round.sol:Round",
            "label": "usdtAddress",
            "offset": 0,
            "slot": "2",
            "type": "t_address"
          },
          {
            "astId": 87,
            "contract": "contracts/Round.sol:Round",
            "label": "TOKEN",
            "offset": 0,
            "slot": "3",
            "type": "t_contract(IToken)1069"
          },
          {
            "astId": 90,
            "contract": "contracts/Round.sol:Round",
            "label": "USDT",
            "offset": 0,
            "slot": "4",
            "type": "t_contract(IERC20)2231"
          },
          {
            "astId": 93,
            "contract": "contracts/Round.sol:Round",
            "label": "availableTreasury",
            "offset": 0,
            "slot": "5",
            "type": "t_uint256"
          },
          {
            "astId": 95,
            "contract": "contracts/Round.sol:Round",
            "label": "isActive",
            "offset": 0,
            "slot": "6",
            "type": "t_bool"
          },
          {
            "astId": 119,
            "contract": "contracts/Round.sol:Round",
            "label": "users",
            "offset": 0,
            "slot": "7",
            "type": "t_mapping(t_address,t_struct(User)114_storage)"
          },
          {
            "astId": 122,
            "contract": "contracts/Round.sol:Round",
            "label": "icoTokenHolders",
            "offset": 0,
            "slot": "8",
            "type": "t_array(t_address)dyn_storage"
          }
        ],
        "types": {
          "t_address": {
            "encoding": "inplace",
            "label": "address",
            "numberOfBytes": "20"
          },
          "t_array(t_address)dyn_storage": {
            "base": "t_address",
            "encoding": "dynamic_array",
            "label": "address[]",
            "numberOfBytes": "32"
          },
          "t_bool": {
            "encoding": "inplace",
            "label": "bool",
            "numberOfBytes": "1"
          },
          "t_contract(IERC20)2231": {
            "encoding": "inplace",
            "label": "contract IERC20",
            "numberOfBytes": "20"
          },
          "t_contract(IToken)1069": {
            "encoding": "inplace",
            "label": "contract IToken",
            "numberOfBytes": "20"
          },
          "t_mapping(t_address,t_struct(User)114_storage)": {
            "encoding": "mapping",
            "key": "t_address",
            "label": "mapping(address => struct Round.User)",
            "numberOfBytes": "32",
            "value": "t_struct(User)114_storage"
          },
          "t_struct(User)114_storage": {
            "encoding": "inplace",
            "label": "struct Round.User",
            "members": [
              {
                "astId": 97,
                "contract": "contracts/Round.sol:Round",
                "label": "totalTokenBalance",
                "offset": 0,
                "slot": "0",
                "type": "t_uint256"
              },
              {
                "astId": 99,
                "contract": "contracts/Round.sol:Round",
                "label": "tokensToIssue",
                "offset": 0,
                "slot": "1",
                "type": "t_uint256"
              },
              {
                "astId": 101,
                "contract": "contracts/Round.sol:Round",
                "label": "liquidBalance",
                "offset": 0,
                "slot": "2",
                "type": "t_uint256"
              },
              {
                "astId": 103,
                "contract": "contracts/Round.sol:Round",
                "label": "pendingForClaim",
                "offset": 0,
                "slot": "3",
                "type": "t_uint256"
              },
              {
                "astId": 105,
                "contract": "contracts/Round.sol:Round",
                "label": "nextUnlockDate",
                "offset": 0,
                "slot": "4",
                "type": "t_uint256"
              },
              {
                "astId": 107,
                "contract": "contracts/Round.sol:Round",
                "label": "numUnlocks",
                "offset": 0,
                "slot": "5",
                "type": "t_uint16"
              },
              {
                "astId": 109,
                "contract": "contracts/Round.sol:Round",
                "label": "isLocked",
                "offset": 2,
                "slot": "5",
                "type": "t_bool"
              },
              {
                "astId": 111,
                "contract": "contracts/Round.sol:Round",
                "label": "initialPayout",
                "offset": 0,
                "slot": "6",
                "type": "t_uint256"
              },
              {
                "astId": 113,
                "contract": "contracts/Round.sol:Round",
                "label": "hasBought",
                "offset": 0,
                "slot": "7",
                "type": "t_bool"
              }
            ],
            "numberOfBytes": "256"
          },
          "t_uint16": {
            "encoding": "inplace",
            "label": "uint16",
            "numberOfBytes": "2"
          },
          "t_uint256": {
            "encoding": "inplace",
            "label": "uint256",
            "numberOfBytes": "32"
          }
        }
      },
      "userdoc": {
        "kind": "user",
        "methods": {},
        "version": 1
      }
    }
  }
}